{
	"Lesson3/HelloWorld.sol": {
		"HelloWorld": {
			"abi": [
				{
					"inputs": [],
					"stateMutability": "nonpayable",
					"type": "constructor"
				},
				{
					"inputs": [],
					"name": "helloWorld",
					"outputs": [
						{
							"internalType": "string",
							"name": "",
							"type": "string"
						}
					],
					"stateMutability": "view",
					"type": "function"
				},
				{
					"inputs": [],
					"name": "isPure",
					"outputs": [
						{
							"internalType": "bool",
							"name": "returnValue_",
							"type": "bool"
						}
					],
					"stateMutability": "view",
					"type": "function"
				},
				{
					"inputs": [],
					"name": "pureText",
					"outputs": [
						{
							"internalType": "string",
							"name": "",
							"type": "string"
						}
					],
					"stateMutability": "pure",
					"type": "function"
				},
				{
					"inputs": [],
					"name": "restore",
					"outputs": [
						{
							"internalType": "bool",
							"name": "",
							"type": "bool"
						}
					],
					"stateMutability": "nonpayable",
					"type": "function"
				},
				{
					"inputs": [
						{
							"internalType": "string",
							"name": "newText",
							"type": "string"
						}
					],
					"name": "setText",
					"outputs": [],
					"stateMutability": "nonpayable",
					"type": "function"
				}
			],
			"devdoc": {
				"kind": "dev",
				"methods": {},
				"version": 1
			},
			"evm": {
				"assembly": "    /* \"Lesson3/HelloWorld.sol\":69:895  contract HelloWorld {... */\n  mstore(0x40, 0x80)\n    /* \"Lesson3/HelloWorld.sol\":121:169  constructor() {... */\n  callvalue\n  dup1\n  iszero\n  tag_1\n  jumpi\n  0x00\n  dup1\n  revert\ntag_1:\n  pop\n    /* \"Lesson3/HelloWorld.sol\":152:162  pureText() */\n  tag_4\n    /* \"Lesson3/HelloWorld.sol\":152:160  pureText */\n  shl(0x20, tag_5)\n    /* \"Lesson3/HelloWorld.sol\":152:162  pureText() */\n  0x20\n  shr\n  jump\t// in\ntag_4:\n    /* \"Lesson3/HelloWorld.sol\":145:149  text */\n  0x00\n    /* \"Lesson3/HelloWorld.sol\":145:162  text = pureText() */\n  swap1\n  dup2\n  tag_6\n  swap2\n  swap1\n  tag_7\n  jump\t// in\ntag_6:\n  pop\n    /* \"Lesson3/HelloWorld.sol\":69:895  contract HelloWorld {... */\n  jump(tag_8)\n    /* \"Lesson3/HelloWorld.sol\":353:446  function pureText() public pure returns (string memory) {... */\ntag_5:\n    /* \"Lesson3/HelloWorld.sol\":394:407  string memory */\n  0x60\n    /* \"Lesson3/HelloWorld.sol\":419:439  return \"Hello World\" */\n  mload(0x40)\n  dup1\n  0x40\n  add\n  0x40\n  mstore\n  dup1\n  0x0b\n  dup2\n  mstore\n  0x20\n  add\n  0x48656c6c6f20576f726c64000000000000000000000000000000000000000000\n  dup2\n  mstore\n  pop\n  swap1\n  pop\n    /* \"Lesson3/HelloWorld.sol\":353:446  function pureText() public pure returns (string memory) {... */\n  swap1\n  jump\t// out\n    /* \"#utility.yul\":7:106   */\ntag_10:\n    /* \"#utility.yul\":59:65   */\n  0x00\n    /* \"#utility.yul\":93:98   */\n  dup2\n    /* \"#utility.yul\":87:99   */\n  mload\n    /* \"#utility.yul\":77:99   */\n  swap1\n  pop\n    /* \"#utility.yul\":7:106   */\n  swap2\n  swap1\n  pop\n  jump\t// out\n    /* \"#utility.yul\":112:292   */\ntag_11:\n    /* \"#utility.yul\":160:237   */\n  0x4e487b7100000000000000000000000000000000000000000000000000000000\n    /* \"#utility.yul\":157:158   */\n  0x00\n    /* \"#utility.yul\":150:238   */\n  mstore\n    /* \"#utility.yul\":257:261   */\n  0x41\n    /* \"#utility.yul\":254:255   */\n  0x04\n    /* \"#utility.yul\":247:262   */\n  mstore\n    /* \"#utility.yul\":281:285   */\n  0x24\n    /* \"#utility.yul\":278:279   */\n  0x00\n    /* \"#utility.yul\":271:286   */\n  revert\n    /* \"#utility.yul\":298:478   */\ntag_12:\n    /* \"#utility.yul\":346:423   */\n  0x4e487b7100000000000000000000000000000000000000000000000000000000\n    /* \"#utility.yul\":343:344   */\n  0x00\n    /* \"#utility.yul\":336:424   */\n  mstore\n    /* \"#utility.yul\":443:447   */\n  0x22\n    /* \"#utility.yul\":440:441   */\n  0x04\n    /* \"#utility.yul\":433:448   */\n  mstore\n    /* \"#utility.yul\":467:471   */\n  0x24\n    /* \"#utility.yul\":464:465   */\n  0x00\n    /* \"#utility.yul\":457:472   */\n  revert\n    /* \"#utility.yul\":484:804   */\ntag_13:\n    /* \"#utility.yul\":528:534   */\n  0x00\n    /* \"#utility.yul\":565:566   */\n  0x02\n    /* \"#utility.yul\":559:563   */\n  dup3\n    /* \"#utility.yul\":555:567   */\n  div\n    /* \"#utility.yul\":545:567   */\n  swap1\n  pop\n    /* \"#utility.yul\":612:613   */\n  0x01\n    /* \"#utility.yul\":606:610   */\n  dup3\n    /* \"#utility.yul\":602:614   */\n  and\n    /* \"#utility.yul\":633:651   */\n  dup1\n    /* \"#utility.yul\":623:704   */\n  tag_35\n  jumpi\n    /* \"#utility.yul\":689:693   */\n  0x7f\n    /* \"#utility.yul\":681:687   */\n  dup3\n    /* \"#utility.yul\":677:694   */\n  and\n    /* \"#utility.yul\":667:694   */\n  swap2\n  pop\n    /* \"#utility.yul\":623:704   */\ntag_35:\n    /* \"#utility.yul\":751:753   */\n  0x20\n    /* \"#utility.yul\":743:749   */\n  dup3\n    /* \"#utility.yul\":740:754   */\n  lt\n    /* \"#utility.yul\":720:738   */\n  dup2\n    /* \"#utility.yul\":717:755   */\n  sub\n    /* \"#utility.yul\":714:798   */\n  tag_36\n  jumpi\n    /* \"#utility.yul\":770:788   */\n  tag_37\n  tag_12\n  jump\t// in\ntag_37:\n    /* \"#utility.yul\":714:798   */\ntag_36:\n    /* \"#utility.yul\":535:804   */\n  pop\n    /* \"#utility.yul\":484:804   */\n  swap2\n  swap1\n  pop\n  jump\t// out\n    /* \"#utility.yul\":810:951   */\ntag_14:\n    /* \"#utility.yul\":859:863   */\n  0x00\n    /* \"#utility.yul\":882:885   */\n  dup2\n    /* \"#utility.yul\":874:885   */\n  swap1\n  pop\n    /* \"#utility.yul\":905:908   */\n  dup2\n    /* \"#utility.yul\":902:903   */\n  0x00\n    /* \"#utility.yul\":895:909   */\n  mstore\n    /* \"#utility.yul\":939:943   */\n  0x20\n    /* \"#utility.yul\":936:937   */\n  0x00\n    /* \"#utility.yul\":926:944   */\n  keccak256\n    /* \"#utility.yul\":918:944   */\n  swap1\n  pop\n    /* \"#utility.yul\":810:951   */\n  swap2\n  swap1\n  pop\n  jump\t// out\n    /* \"#utility.yul\":957:1050   */\ntag_15:\n    /* \"#utility.yul\":994:1000   */\n  0x00\n    /* \"#utility.yul\":1041:1043   */\n  0x20\n    /* \"#utility.yul\":1036:1038   */\n  0x1f\n    /* \"#utility.yul\":1029:1034   */\n  dup4\n    /* \"#utility.yul\":1025:1039   */\n  add\n    /* \"#utility.yul\":1021:1044   */\n  div\n    /* \"#utility.yul\":1011:1044   */\n  swap1\n  pop\n    /* \"#utility.yul\":957:1050   */\n  swap2\n  swap1\n  pop\n  jump\t// out\n    /* \"#utility.yul\":1056:1163   */\ntag_16:\n    /* \"#utility.yul\":1100:1108   */\n  0x00\n    /* \"#utility.yul\":1150:1155   */\n  dup3\n    /* \"#utility.yul\":1144:1148   */\n  dup3\n    /* \"#utility.yul\":1140:1156   */\n  shl\n    /* \"#utility.yul\":1119:1156   */\n  swap1\n  pop\n    /* \"#utility.yul\":1056:1163   */\n  swap3\n  swap2\n  pop\n  pop\n  jump\t// out\n    /* \"#utility.yul\":1169:1562   */\ntag_17:\n    /* \"#utility.yul\":1238:1244   */\n  0x00\n    /* \"#utility.yul\":1288:1289   */\n  0x08\n    /* \"#utility.yul\":1276:1286   */\n  dup4\n    /* \"#utility.yul\":1272:1290   */\n  mul\n    /* \"#utility.yul\":1311:1408   */\n  tag_42\n    /* \"#utility.yul\":1341:1407   */\n  0xffffffffffffffffffffffffffffffffffffffffffffffffffffffffffffffff\n    /* \"#utility.yul\":1330:1339   */\n  dup3\n    /* \"#utility.yul\":1311:1408   */\n  tag_16\n  jump\t// in\ntag_42:\n    /* \"#utility.yul\":1429:1468   */\n  tag_43\n    /* \"#utility.yul\":1459:1467   */\n  dup7\n    /* \"#utility.yul\":1448:1457   */\n  dup4\n    /* \"#utility.yul\":1429:1468   */\n  tag_16\n  jump\t// in\ntag_43:\n    /* \"#utility.yul\":1417:1468   */\n  swap6\n  pop\n    /* \"#utility.yul\":1501:1505   */\n  dup1\n    /* \"#utility.yul\":1497:1506   */\n  not\n    /* \"#utility.yul\":1490:1495   */\n  dup5\n    /* \"#utility.yul\":1486:1507   */\n  and\n    /* \"#utility.yul\":1477:1507   */\n  swap4\n  pop\n    /* \"#utility.yul\":1550:1554   */\n  dup1\n    /* \"#utility.yul\":1540:1548   */\n  dup7\n    /* \"#utility.yul\":1536:1555   */\n  and\n    /* \"#utility.yul\":1529:1534   */\n  dup5\n    /* \"#utility.yul\":1526:1556   */\n  or\n    /* \"#utility.yul\":1516:1556   */\n  swap3\n  pop\n    /* \"#utility.yul\":1245:1562   */\n  pop\n  pop\n    /* \"#utility.yul\":1169:1562   */\n  swap4\n  swap3\n  pop\n  pop\n  pop\n  jump\t// out\n    /* \"#utility.yul\":1568:1645   */\ntag_18:\n    /* \"#utility.yul\":1605:1612   */\n  0x00\n    /* \"#utility.yul\":1634:1639   */\n  dup2\n    /* \"#utility.yul\":1623:1639   */\n  swap1\n  pop\n    /* \"#utility.yul\":1568:1645   */\n  swap2\n  swap1\n  pop\n  jump\t// out\n    /* \"#utility.yul\":1651:1711   */\ntag_19:\n    /* \"#utility.yul\":1679:1682   */\n  0x00\n    /* \"#utility.yul\":1700:1705   */\n  dup2\n    /* \"#utility.yul\":1693:1705   */\n  swap1\n  pop\n    /* \"#utility.yul\":1651:1711   */\n  swap2\n  swap1\n  pop\n  jump\t// out\n    /* \"#utility.yul\":1717:1859   */\ntag_20:\n    /* \"#utility.yul\":1767:1776   */\n  0x00\n    /* \"#utility.yul\":1800:1853   */\n  tag_47\n    /* \"#utility.yul\":1818:1852   */\n  tag_48\n    /* \"#utility.yul\":1827:1851   */\n  tag_49\n    /* \"#utility.yul\":1845:1850   */\n  dup5\n    /* \"#utility.yul\":1827:1851   */\n  tag_18\n  jump\t// in\ntag_49:\n    /* \"#utility.yul\":1818:1852   */\n  tag_19\n  jump\t// in\ntag_48:\n    /* \"#utility.yul\":1800:1853   */\n  tag_18\n  jump\t// in\ntag_47:\n    /* \"#utility.yul\":1787:1853   */\n  swap1\n  pop\n    /* \"#utility.yul\":1717:1859   */\n  swap2\n  swap1\n  pop\n  jump\t// out\n    /* \"#utility.yul\":1865:1940   */\ntag_21:\n    /* \"#utility.yul\":1908:1911   */\n  0x00\n    /* \"#utility.yul\":1929:1934   */\n  dup2\n    /* \"#utility.yul\":1922:1934   */\n  swap1\n  pop\n    /* \"#utility.yul\":1865:1940   */\n  swap2\n  swap1\n  pop\n  jump\t// out\n    /* \"#utility.yul\":1946:2215   */\ntag_22:\n    /* \"#utility.yul\":2056:2095   */\n  tag_52\n    /* \"#utility.yul\":2087:2094   */\n  dup4\n    /* \"#utility.yul\":2056:2095   */\n  tag_20\n  jump\t// in\ntag_52:\n    /* \"#utility.yul\":2117:2208   */\n  tag_53\n    /* \"#utility.yul\":2166:2207   */\n  tag_54\n    /* \"#utility.yul\":2190:2206   */\n  dup3\n    /* \"#utility.yul\":2166:2207   */\n  tag_21\n  jump\t// in\ntag_54:\n    /* \"#utility.yul\":2158:2164   */\n  dup5\n    /* \"#utility.yul\":2151:2155   */\n  dup5\n    /* \"#utility.yul\":2145:2156   */\n  sload\n    /* \"#utility.yul\":2117:2208   */\n  tag_17\n  jump\t// in\ntag_53:\n    /* \"#utility.yul\":2111:2115   */\n  dup3\n    /* \"#utility.yul\":2104:2209   */\n  sstore\n    /* \"#utility.yul\":2022:2215   */\n  pop\n    /* \"#utility.yul\":1946:2215   */\n  pop\n  pop\n  pop\n  jump\t// out\n    /* \"#utility.yul\":2221:2294   */\ntag_23:\n    /* \"#utility.yul\":2266:2269   */\n  0x00\n    /* \"#utility.yul\":2221:2294   */\n  swap1\n  jump\t// out\n    /* \"#utility.yul\":2300:2489   */\ntag_24:\n    /* \"#utility.yul\":2377:2409   */\n  tag_57\n  tag_23\n  jump\t// in\ntag_57:\n    /* \"#utility.yul\":2418:2483   */\n  tag_58\n    /* \"#utility.yul\":2476:2482   */\n  dup2\n    /* \"#utility.yul\":2468:2474   */\n  dup5\n    /* \"#utility.yul\":2462:2466   */\n  dup5\n    /* \"#utility.yul\":2418:2483   */\n  tag_22\n  jump\t// in\ntag_58:\n    /* \"#utility.yul\":2353:2489   */\n  pop\n    /* \"#utility.yul\":2300:2489   */\n  pop\n  pop\n  jump\t// out\n    /* \"#utility.yul\":2495:2681   */\ntag_25:\n    /* \"#utility.yul\":2555:2675   */\ntag_60:\n    /* \"#utility.yul\":2572:2575   */\n  dup2\n    /* \"#utility.yul\":2565:2570   */\n  dup2\n    /* \"#utility.yul\":2562:2576   */\n  lt\n    /* \"#utility.yul\":2555:2675   */\n  iszero\n  tag_62\n  jumpi\n    /* \"#utility.yul\":2626:2665   */\n  tag_63\n    /* \"#utility.yul\":2663:2664   */\n  0x00\n    /* \"#utility.yul\":2656:2661   */\n  dup3\n    /* \"#utility.yul\":2626:2665   */\n  tag_24\n  jump\t// in\ntag_63:\n    /* \"#utility.yul\":2599:2600   */\n  0x01\n    /* \"#utility.yul\":2592:2597   */\n  dup2\n    /* \"#utility.yul\":2588:2601   */\n  add\n    /* \"#utility.yul\":2579:2601   */\n  swap1\n  pop\n    /* \"#utility.yul\":2555:2675   */\n  jump(tag_60)\ntag_62:\n    /* \"#utility.yul\":2495:2681   */\n  pop\n  pop\n  jump\t// out\n    /* \"#utility.yul\":2687:3230   */\ntag_26:\n    /* \"#utility.yul\":2788:2790   */\n  0x1f\n    /* \"#utility.yul\":2783:2786   */\n  dup3\n    /* \"#utility.yul\":2780:2791   */\n  gt\n    /* \"#utility.yul\":2777:3223   */\n  iszero\n  tag_65\n  jumpi\n    /* \"#utility.yul\":2822:2860   */\n  tag_66\n    /* \"#utility.yul\":2854:2859   */\n  dup2\n    /* \"#utility.yul\":2822:2860   */\n  tag_14\n  jump\t// in\ntag_66:\n    /* \"#utility.yul\":2906:2935   */\n  tag_67\n    /* \"#utility.yul\":2924:2934   */\n  dup5\n    /* \"#utility.yul\":2906:2935   */\n  tag_15\n  jump\t// in\ntag_67:\n    /* \"#utility.yul\":2896:2904   */\n  dup2\n    /* \"#utility.yul\":2892:2936   */\n  add\n    /* \"#utility.yul\":3089:3091   */\n  0x20\n    /* \"#utility.yul\":3077:3087   */\n  dup6\n    /* \"#utility.yul\":3074:3092   */\n  lt\n    /* \"#utility.yul\":3071:3120   */\n  iszero\n  tag_68\n  jumpi\n    /* \"#utility.yul\":3110:3118   */\n  dup2\n    /* \"#utility.yul\":3095:3118   */\n  swap1\n  pop\n    /* \"#utility.yul\":3071:3120   */\ntag_68:\n    /* \"#utility.yul\":3133:3213   */\n  tag_69\n    /* \"#utility.yul\":3189:3211   */\n  tag_70\n    /* \"#utility.yul\":3207:3210   */\n  dup6\n    /* \"#utility.yul\":3189:3211   */\n  tag_15\n  jump\t// in\ntag_70:\n    /* \"#utility.yul\":3179:3187   */\n  dup4\n    /* \"#utility.yul\":3175:3212   */\n  add\n    /* \"#utility.yul\":3162:3173   */\n  dup3\n    /* \"#utility.yul\":3133:3213   */\n  tag_25\n  jump\t// in\ntag_69:\n    /* \"#utility.yul\":2792:3223   */\n  pop\n  pop\n    /* \"#utility.yul\":2777:3223   */\ntag_65:\n    /* \"#utility.yul\":2687:3230   */\n  pop\n  pop\n  pop\n  jump\t// out\n    /* \"#utility.yul\":3236:3353   */\ntag_27:\n    /* \"#utility.yul\":3290:3298   */\n  0x00\n    /* \"#utility.yul\":3340:3345   */\n  dup3\n    /* \"#utility.yul\":3334:3338   */\n  dup3\n    /* \"#utility.yul\":3330:3346   */\n  shr\n    /* \"#utility.yul\":3309:3346   */\n  swap1\n  pop\n    /* \"#utility.yul\":3236:3353   */\n  swap3\n  swap2\n  pop\n  pop\n  jump\t// out\n    /* \"#utility.yul\":3359:3528   */\ntag_28:\n    /* \"#utility.yul\":3403:3409   */\n  0x00\n    /* \"#utility.yul\":3436:3487   */\n  tag_73\n    /* \"#utility.yul\":3484:3485   */\n  0x00\n    /* \"#utility.yul\":3480:3486   */\n  not\n    /* \"#utility.yul\":3472:3477   */\n  dup5\n    /* \"#utility.yul\":3469:3470   */\n  0x08\n    /* \"#utility.yul\":3465:3478   */\n  mul\n    /* \"#utility.yul\":3436:3487   */\n  tag_27\n  jump\t// in\ntag_73:\n    /* \"#utility.yul\":3432:3488   */\n  not\n    /* \"#utility.yul\":3517:3521   */\n  dup1\n    /* \"#utility.yul\":3511:3515   */\n  dup4\n    /* \"#utility.yul\":3507:3522   */\n  and\n    /* \"#utility.yul\":3497:3522   */\n  swap2\n  pop\n    /* \"#utility.yul\":3410:3528   */\n  pop\n    /* \"#utility.yul\":3359:3528   */\n  swap3\n  swap2\n  pop\n  pop\n  jump\t// out\n    /* \"#utility.yul\":3533:3828   */\ntag_29:\n    /* \"#utility.yul\":3609:3613   */\n  0x00\n    /* \"#utility.yul\":3755:3784   */\n  tag_75\n    /* \"#utility.yul\":3780:3783   */\n  dup4\n    /* \"#utility.yul\":3774:3778   */\n  dup4\n    /* \"#utility.yul\":3755:3784   */\n  tag_28\n  jump\t// in\ntag_75:\n    /* \"#utility.yul\":3747:3784   */\n  swap2\n  pop\n    /* \"#utility.yul\":3817:3820   */\n  dup3\n    /* \"#utility.yul\":3814:3815   */\n  0x02\n    /* \"#utility.yul\":3810:3821   */\n  mul\n    /* \"#utility.yul\":3804:3808   */\n  dup3\n    /* \"#utility.yul\":3801:3822   */\n  or\n    /* \"#utility.yul\":3793:3822   */\n  swap1\n  pop\n    /* \"#utility.yul\":3533:3828   */\n  swap3\n  swap2\n  pop\n  pop\n  jump\t// out\n    /* \"#utility.yul\":3833:5228   */\ntag_7:\n    /* \"#utility.yul\":3950:3987   */\n  tag_77\n    /* \"#utility.yul\":3983:3986   */\n  dup3\n    /* \"#utility.yul\":3950:3987   */\n  tag_10\n  jump\t// in\ntag_77:\n    /* \"#utility.yul\":4052:4070   */\n  0xffffffffffffffff\n    /* \"#utility.yul\":4044:4050   */\n  dup2\n    /* \"#utility.yul\":4041:4071   */\n  gt\n    /* \"#utility.yul\":4038:4094   */\n  iszero\n  tag_78\n  jumpi\n    /* \"#utility.yul\":4074:4092   */\n  tag_79\n  tag_11\n  jump\t// in\ntag_79:\n    /* \"#utility.yul\":4038:4094   */\ntag_78:\n    /* \"#utility.yul\":4118:4156   */\n  tag_80\n    /* \"#utility.yul\":4150:4154   */\n  dup3\n    /* \"#utility.yul\":4144:4155   */\n  sload\n    /* \"#utility.yul\":4118:4156   */\n  tag_13\n  jump\t// in\ntag_80:\n    /* \"#utility.yul\":4203:4270   */\n  tag_81\n    /* \"#utility.yul\":4263:4269   */\n  dup3\n    /* \"#utility.yul\":4255:4261   */\n  dup3\n    /* \"#utility.yul\":4249:4253   */\n  dup6\n    /* \"#utility.yul\":4203:4270   */\n  tag_26\n  jump\t// in\ntag_81:\n    /* \"#utility.yul\":4297:4298   */\n  0x00\n    /* \"#utility.yul\":4321:4325   */\n  0x20\n    /* \"#utility.yul\":4308:4325   */\n  swap1\n  pop\n    /* \"#utility.yul\":4353:4355   */\n  0x1f\n    /* \"#utility.yul\":4345:4351   */\n  dup4\n    /* \"#utility.yul\":4342:4356   */\n  gt\n    /* \"#utility.yul\":4370:4371   */\n  0x01\n    /* \"#utility.yul\":4365:4983   */\n  dup2\n  eq\n  tag_83\n  jumpi\n    /* \"#utility.yul\":5027:5028   */\n  0x00\n    /* \"#utility.yul\":5044:5050   */\n  dup5\n    /* \"#utility.yul\":5041:5118   */\n  iszero\n  tag_84\n  jumpi\n    /* \"#utility.yul\":5093:5102   */\n  dup3\n    /* \"#utility.yul\":5088:5091   */\n  dup8\n    /* \"#utility.yul\":5084:5103   */\n  add\n    /* \"#utility.yul\":5078:5104   */\n  mload\n    /* \"#utility.yul\":5069:5104   */\n  swap1\n  pop\n    /* \"#utility.yul\":5041:5118   */\ntag_84:\n    /* \"#utility.yul\":5144:5211   */\n  tag_85\n    /* \"#utility.yul\":5204:5210   */\n  dup6\n    /* \"#utility.yul\":5197:5202   */\n  dup3\n    /* \"#utility.yul\":5144:5211   */\n  tag_29\n  jump\t// in\ntag_85:\n    /* \"#utility.yul\":5138:5142   */\n  dup7\n    /* \"#utility.yul\":5131:5212   */\n  sstore\n    /* \"#utility.yul\":5000:5222   */\n  pop\n    /* \"#utility.yul\":4335:5222   */\n  jump(tag_82)\n    /* \"#utility.yul\":4365:4983   */\ntag_83:\n    /* \"#utility.yul\":4417:4421   */\n  0x1f\n    /* \"#utility.yul\":4413:4422   */\n  not\n    /* \"#utility.yul\":4405:4411   */\n  dup5\n    /* \"#utility.yul\":4401:4423   */\n  and\n    /* \"#utility.yul\":4451:4488   */\n  tag_86\n    /* \"#utility.yul\":4483:4487   */\n  dup7\n    /* \"#utility.yul\":4451:4488   */\n  tag_14\n  jump\t// in\ntag_86:\n    /* \"#utility.yul\":4510:4511   */\n  0x00\n    /* \"#utility.yul\":4524:4732   */\ntag_87:\n    /* \"#utility.yul\":4538:4545   */\n  dup3\n    /* \"#utility.yul\":4535:4536   */\n  dup2\n    /* \"#utility.yul\":4532:4546   */\n  lt\n    /* \"#utility.yul\":4524:4732   */\n  iszero\n  tag_89\n  jumpi\n    /* \"#utility.yul\":4617:4626   */\n  dup5\n    /* \"#utility.yul\":4612:4615   */\n  dup10\n    /* \"#utility.yul\":4608:4627   */\n  add\n    /* \"#utility.yul\":4602:4628   */\n  mload\n    /* \"#utility.yul\":4594:4600   */\n  dup3\n    /* \"#utility.yul\":4587:4629   */\n  sstore\n    /* \"#utility.yul\":4668:4669   */\n  0x01\n    /* \"#utility.yul\":4660:4666   */\n  dup3\n    /* \"#utility.yul\":4656:4670   */\n  add\n    /* \"#utility.yul\":4646:4670   */\n  swap2\n  pop\n    /* \"#utility.yul\":4715:4717   */\n  0x20\n    /* \"#utility.yul\":4704:4713   */\n  dup6\n    /* \"#utility.yul\":4700:4718   */\n  add\n    /* \"#utility.yul\":4687:4718   */\n  swap5\n  pop\n    /* \"#utility.yul\":4561:4565   */\n  0x20\n    /* \"#utility.yul\":4558:4559   */\n  dup2\n    /* \"#utility.yul\":4554:4566   */\n  add\n    /* \"#utility.yul\":4549:4566   */\n  swap1\n  pop\n    /* \"#utility.yul\":4524:4732   */\n  jump(tag_87)\ntag_89:\n    /* \"#utility.yul\":4760:4766   */\n  dup7\n    /* \"#utility.yul\":4751:4758   */\n  dup4\n    /* \"#utility.yul\":4748:4767   */\n  lt\n    /* \"#utility.yul\":4745:4924   */\n  iszero\n  tag_90\n  jumpi\n    /* \"#utility.yul\":4818:4827   */\n  dup5\n    /* \"#utility.yul\":4813:4816   */\n  dup10\n    /* \"#utility.yul\":4809:4828   */\n  add\n    /* \"#utility.yul\":4803:4829   */\n  mload\n    /* \"#utility.yul\":4861:4909   */\n  tag_91\n    /* \"#utility.yul\":4903:4907   */\n  0x1f\n    /* \"#utility.yul\":4895:4901   */\n  dup10\n    /* \"#utility.yul\":4891:4908   */\n  and\n    /* \"#utility.yul\":4880:4889   */\n  dup3\n    /* \"#utility.yul\":4861:4909   */\n  tag_28\n  jump\t// in\ntag_91:\n    /* \"#utility.yul\":4853:4859   */\n  dup4\n    /* \"#utility.yul\":4846:4910   */\n  sstore\n    /* \"#utility.yul\":4768:4924   */\n  pop\n    /* \"#utility.yul\":4745:4924   */\ntag_90:\n    /* \"#utility.yul\":4970:4971   */\n  0x01\n    /* \"#utility.yul\":4966:4967   */\n  0x02\n    /* \"#utility.yul\":4958:4964   */\n  dup9\n    /* \"#utility.yul\":4954:4968   */\n  mul\n    /* \"#utility.yul\":4950:4972   */\n  add\n    /* \"#utility.yul\":4944:4948   */\n  dup9\n    /* \"#utility.yul\":4937:4973   */\n  sstore\n    /* \"#utility.yul\":4372:4983   */\n  pop\n  pop\n  pop\n    /* \"#utility.yul\":4335:5222   */\ntag_82:\n  pop\n    /* \"#utility.yul\":3925:5228   */\n  pop\n  pop\n  pop\n    /* \"#utility.yul\":3833:5228   */\n  pop\n  pop\n  jump\t// out\n    /* \"Lesson3/HelloWorld.sol\":69:895  contract HelloWorld {... */\ntag_8:\n  dataSize(sub_0)\n  dup1\n  dataOffset(sub_0)\n  0x00\n  codecopy\n  0x00\n  return\nstop\n\nsub_0: assembly {\n        /* \"Lesson3/HelloWorld.sol\":69:895  contract HelloWorld {... */\n      mstore(0x40, 0x80)\n      callvalue\n      dup1\n      iszero\n      tag_1\n      jumpi\n      0x00\n      dup1\n      revert\n    tag_1:\n      pop\n      jumpi(tag_2, lt(calldatasize, 0x04))\n      shr(0xe0, calldataload(0x00))\n      dup1\n      0x0953aec5\n      eq\n      tag_3\n      jumpi\n      dup1\n      0x1089bbc8\n      eq\n      tag_4\n      jumpi\n      dup1\n      0x2fda332e\n      eq\n      tag_5\n      jumpi\n      dup1\n      0x5d3a1f9d\n      eq\n      tag_6\n      jumpi\n      dup1\n      0xc605f76c\n      eq\n      tag_7\n      jumpi\n    tag_2:\n      0x00\n      dup1\n      revert\n        /* \"Lesson3/HelloWorld.sol\":593:692  function isPure() public view returns (bool returnValue_) {... */\n    tag_3:\n      tag_8\n      tag_9\n      jump\t// in\n    tag_8:\n      mload(0x40)\n      tag_10\n      swap2\n      swap1\n      tag_11\n      jump\t// in\n    tag_10:\n      mload(0x40)\n      dup1\n      swap2\n      sub\n      swap1\n      return\n        /* \"Lesson3/HelloWorld.sol\":353:446  function pureText() public pure returns (string memory) {... */\n    tag_4:\n      tag_12\n      tag_13\n      jump\t// in\n    tag_12:\n      mload(0x40)\n      tag_14\n      swap2\n      swap1\n      tag_15\n      jump\t// in\n    tag_14:\n      mload(0x40)\n      dup1\n      swap2\n      sub\n      swap1\n      return\n        /* \"Lesson3/HelloWorld.sol\":767:893  function restore() public returns (bool) {... */\n    tag_5:\n      tag_16\n      tag_17\n      jump\t// in\n    tag_16:\n      mload(0x40)\n      tag_18\n      swap2\n      swap1\n      tag_11\n      jump\t// in\n    tag_18:\n      mload(0x40)\n      dup1\n      swap2\n      sub\n      swap1\n      return\n        /* \"Lesson3/HelloWorld.sol\":267:347  function setText(string calldata newText) public {... */\n    tag_6:\n      tag_19\n      0x04\n      dup1\n      calldatasize\n      sub\n      dup2\n      add\n      swap1\n      tag_20\n      swap2\n      swap1\n      tag_21\n      jump\t// in\n    tag_20:\n      tag_22\n      jump\t// in\n    tag_19:\n      stop\n        /* \"Lesson3/HelloWorld.sol\":175:261  function helloWorld() public view returns (string memory) {... */\n    tag_7:\n      tag_23\n      tag_24\n      jump\t// in\n    tag_23:\n      mload(0x40)\n      tag_25\n      swap2\n      swap1\n      tag_15\n      jump\t// in\n    tag_25:\n      mload(0x40)\n      dup1\n      swap2\n      sub\n      swap1\n      return\n        /* \"Lesson3/HelloWorld.sol\":593:692  function isPure() public view returns (bool returnValue_) {... */\n    tag_9:\n        /* \"Lesson3/HelloWorld.sol\":632:649  bool returnValue_ */\n      0x00\n        /* \"Lesson3/HelloWorld.sol\":676:685  _isPure() */\n      tag_27\n        /* \"Lesson3/HelloWorld.sol\":676:683  _isPure */\n      tag_28\n        /* \"Lesson3/HelloWorld.sol\":676:685  _isPure() */\n      jump\t// in\n    tag_27:\n        /* \"Lesson3/HelloWorld.sol\":661:685  returnValue_ = _isPure() */\n      swap1\n      pop\n        /* \"Lesson3/HelloWorld.sol\":593:692  function isPure() public view returns (bool returnValue_) {... */\n      swap1\n      jump\t// out\n        /* \"Lesson3/HelloWorld.sol\":353:446  function pureText() public pure returns (string memory) {... */\n    tag_13:\n        /* \"Lesson3/HelloWorld.sol\":394:407  string memory */\n      0x60\n        /* \"Lesson3/HelloWorld.sol\":419:439  return \"Hello World\" */\n      mload(0x40)\n      dup1\n      0x40\n      add\n      0x40\n      mstore\n      dup1\n      0x0b\n      dup2\n      mstore\n      0x20\n      add\n      0x48656c6c6f20576f726c64000000000000000000000000000000000000000000\n      dup2\n      mstore\n      pop\n      swap1\n      pop\n        /* \"Lesson3/HelloWorld.sol\":353:446  function pureText() public pure returns (string memory) {... */\n      swap1\n      jump\t// out\n        /* \"Lesson3/HelloWorld.sol\":767:893  function restore() public returns (bool) {... */\n    tag_17:\n        /* \"Lesson3/HelloWorld.sol\":802:806  bool */\n      0x00\n        /* \"Lesson3/HelloWorld.sol\":822:831  _isPure() */\n      tag_31\n        /* \"Lesson3/HelloWorld.sol\":822:829  _isPure */\n      tag_28\n        /* \"Lesson3/HelloWorld.sol\":822:831  _isPure() */\n      jump\t// in\n    tag_31:\n        /* \"Lesson3/HelloWorld.sol\":818:845  if (_isPure()) return false */\n      iszero\n      tag_32\n      jumpi\n        /* \"Lesson3/HelloWorld.sol\":840:845  false */\n      0x00\n        /* \"Lesson3/HelloWorld.sol\":833:845  return false */\n      swap1\n      pop\n      jump(tag_30)\n        /* \"Lesson3/HelloWorld.sol\":818:845  if (_isPure()) return false */\n    tag_32:\n        /* \"Lesson3/HelloWorld.sol\":855:865  _restore() */\n      tag_33\n        /* \"Lesson3/HelloWorld.sol\":855:863  _restore */\n      tag_34\n        /* \"Lesson3/HelloWorld.sol\":855:865  _restore() */\n      jump\t// in\n    tag_33:\n        /* \"Lesson3/HelloWorld.sol\":882:886  true */\n      0x01\n        /* \"Lesson3/HelloWorld.sol\":875:886  return true */\n      swap1\n      pop\n        /* \"Lesson3/HelloWorld.sol\":767:893  function restore() public returns (bool) {... */\n    tag_30:\n      swap1\n      jump\t// out\n        /* \"Lesson3/HelloWorld.sol\":267:347  function setText(string calldata newText) public {... */\n    tag_22:\n        /* \"Lesson3/HelloWorld.sol\":333:340  newText */\n      dup2\n      dup2\n        /* \"Lesson3/HelloWorld.sol\":326:330  text */\n      0x00\n        /* \"Lesson3/HelloWorld.sol\":326:340  text = newText */\n      swap2\n      dup3\n      tag_36\n      swap3\n      swap2\n      swap1\n      tag_37\n      jump\t// in\n    tag_36:\n      pop\n        /* \"Lesson3/HelloWorld.sol\":267:347  function setText(string calldata newText) public {... */\n      pop\n      pop\n      jump\t// out\n        /* \"Lesson3/HelloWorld.sol\":175:261  function helloWorld() public view returns (string memory) {... */\n    tag_24:\n        /* \"Lesson3/HelloWorld.sol\":218:231  string memory */\n      0x60\n        /* \"Lesson3/HelloWorld.sol\":250:254  text */\n      0x00\n        /* \"Lesson3/HelloWorld.sol\":243:254  return text */\n      dup1\n      sload\n      tag_39\n      swap1\n      tag_40\n      jump\t// in\n    tag_39:\n      dup1\n      0x1f\n      add\n      0x20\n      dup1\n      swap2\n      div\n      mul\n      0x20\n      add\n      mload(0x40)\n      swap1\n      dup2\n      add\n      0x40\n      mstore\n      dup1\n      swap3\n      swap2\n      swap1\n      dup2\n      dup2\n      mstore\n      0x20\n      add\n      dup3\n      dup1\n      sload\n      tag_41\n      swap1\n      tag_40\n      jump\t// in\n    tag_41:\n      dup1\n      iszero\n      tag_42\n      jumpi\n      dup1\n      0x1f\n      lt\n      tag_43\n      jumpi\n      0x0100\n      dup1\n      dup4\n      sload\n      div\n      mul\n      dup4\n      mstore\n      swap2\n      0x20\n      add\n      swap2\n      jump(tag_42)\n    tag_43:\n      dup3\n      add\n      swap2\n      swap1\n      0x00\n      mstore\n      keccak256(0x00, 0x20)\n      swap1\n    tag_44:\n      dup2\n      sload\n      dup2\n      mstore\n      swap1\n      0x01\n      add\n      swap1\n      0x20\n      add\n      dup1\n      dup4\n      gt\n      tag_44\n      jumpi\n      dup3\n      swap1\n      sub\n      0x1f\n      and\n      dup3\n      add\n      swap2\n    tag_42:\n      pop\n      pop\n      pop\n      pop\n      pop\n      swap1\n      pop\n        /* \"Lesson3/HelloWorld.sol\":175:261  function helloWorld() public view returns (string memory) {... */\n      swap1\n      jump\t// out\n        /* \"Lesson3/HelloWorld.sol\":452:587  function _isPure() internal view returns (bool check_) {... */\n    tag_28:\n        /* \"Lesson3/HelloWorld.sol\":494:505  bool check_ */\n      0x00\n        /* \"Lesson3/HelloWorld.sol\":568:578  pureText() */\n      tag_46\n        /* \"Lesson3/HelloWorld.sol\":568:576  pureText */\n      tag_13\n        /* \"Lesson3/HelloWorld.sol\":568:578  pureText() */\n      jump\t// in\n    tag_46:\n        /* \"Lesson3/HelloWorld.sol\":552:580  keccak256(bytes(pureText())) */\n      dup1\n      mload\n      swap1\n      0x20\n      add\n      keccak256\n        /* \"Lesson3/HelloWorld.sol\":542:546  text */\n      0x00\n        /* \"Lesson3/HelloWorld.sol\":526:548  keccak256(bytes(text)) */\n      mload(0x40)\n      tag_47\n      swap2\n      swap1\n      tag_48\n      jump\t// in\n    tag_47:\n      mload(0x40)\n      dup1\n      swap2\n      sub\n      swap1\n      keccak256\n        /* \"Lesson3/HelloWorld.sol\":526:580  keccak256(bytes(text)) == keccak256(bytes(pureText())) */\n      eq\n        /* \"Lesson3/HelloWorld.sol\":517:580  check_ = keccak256(bytes(text)) == keccak256(bytes(pureText())) */\n      swap1\n      pop\n        /* \"Lesson3/HelloWorld.sol\":452:587  function _isPure() internal view returns (bool check_) {... */\n      swap1\n      jump\t// out\n        /* \"Lesson3/HelloWorld.sol\":698:761  function _restore() internal {... */\n    tag_34:\n        /* \"Lesson3/HelloWorld.sol\":744:754  pureText() */\n      tag_50\n        /* \"Lesson3/HelloWorld.sol\":744:752  pureText */\n      tag_13\n        /* \"Lesson3/HelloWorld.sol\":744:754  pureText() */\n      jump\t// in\n    tag_50:\n        /* \"Lesson3/HelloWorld.sol\":737:741  text */\n      0x00\n        /* \"Lesson3/HelloWorld.sol\":737:754  text = pureText() */\n      swap1\n      dup2\n      tag_51\n      swap2\n      swap1\n      tag_52\n      jump\t// in\n    tag_51:\n      pop\n        /* \"Lesson3/HelloWorld.sol\":698:761  function _restore() internal {... */\n      jump\t// out\n        /* \"#utility.yul\":7:97   */\n    tag_53:\n        /* \"#utility.yul\":41:48   */\n      0x00\n        /* \"#utility.yul\":84:89   */\n      dup2\n        /* \"#utility.yul\":77:90   */\n      iszero\n        /* \"#utility.yul\":70:91   */\n      iszero\n        /* \"#utility.yul\":59:91   */\n      swap1\n      pop\n        /* \"#utility.yul\":7:97   */\n      swap2\n      swap1\n      pop\n      jump\t// out\n        /* \"#utility.yul\":103:212   */\n    tag_54:\n        /* \"#utility.yul\":184:205   */\n      tag_92\n        /* \"#utility.yul\":199:204   */\n      dup2\n        /* \"#utility.yul\":184:205   */\n      tag_53\n      jump\t// in\n    tag_92:\n        /* \"#utility.yul\":179:182   */\n      dup3\n        /* \"#utility.yul\":172:206   */\n      mstore\n        /* \"#utility.yul\":103:212   */\n      pop\n      pop\n      jump\t// out\n        /* \"#utility.yul\":218:428   */\n    tag_11:\n        /* \"#utility.yul\":305:309   */\n      0x00\n        /* \"#utility.yul\":343:345   */\n      0x20\n        /* \"#utility.yul\":332:341   */\n      dup3\n        /* \"#utility.yul\":328:346   */\n      add\n        /* \"#utility.yul\":320:346   */\n      swap1\n      pop\n        /* \"#utility.yul\":356:421   */\n      tag_94\n        /* \"#utility.yul\":418:419   */\n      0x00\n        /* \"#utility.yul\":407:416   */\n      dup4\n        /* \"#utility.yul\":403:420   */\n      add\n        /* \"#utility.yul\":394:400   */\n      dup5\n        /* \"#utility.yul\":356:421   */\n      tag_54\n      jump\t// in\n    tag_94:\n        /* \"#utility.yul\":218:428   */\n      swap3\n      swap2\n      pop\n      pop\n      jump\t// out\n        /* \"#utility.yul\":434:533   */\n    tag_55:\n        /* \"#utility.yul\":486:492   */\n      0x00\n        /* \"#utility.yul\":520:525   */\n      dup2\n        /* \"#utility.yul\":514:526   */\n      mload\n        /* \"#utility.yul\":504:526   */\n      swap1\n      pop\n        /* \"#utility.yul\":434:533   */\n      swap2\n      swap1\n      pop\n      jump\t// out\n        /* \"#utility.yul\":539:708   */\n    tag_56:\n        /* \"#utility.yul\":623:634   */\n      0x00\n        /* \"#utility.yul\":657:663   */\n      dup3\n        /* \"#utility.yul\":652:655   */\n      dup3\n        /* \"#utility.yul\":645:664   */\n      mstore\n        /* \"#utility.yul\":697:701   */\n      0x20\n        /* \"#utility.yul\":692:695   */\n      dup3\n        /* \"#utility.yul\":688:702   */\n      add\n        /* \"#utility.yul\":673:702   */\n      swap1\n      pop\n        /* \"#utility.yul\":539:708   */\n      swap3\n      swap2\n      pop\n      pop\n      jump\t// out\n        /* \"#utility.yul\":714:960   */\n    tag_57:\n        /* \"#utility.yul\":795:796   */\n      0x00\n        /* \"#utility.yul\":805:918   */\n    tag_98:\n        /* \"#utility.yul\":819:825   */\n      dup4\n        /* \"#utility.yul\":816:817   */\n      dup2\n        /* \"#utility.yul\":813:826   */\n      lt\n        /* \"#utility.yul\":805:918   */\n      iszero\n      tag_100\n      jumpi\n        /* \"#utility.yul\":904:905   */\n      dup1\n        /* \"#utility.yul\":899:902   */\n      dup3\n        /* \"#utility.yul\":895:906   */\n      add\n        /* \"#utility.yul\":889:907   */\n      mload\n        /* \"#utility.yul\":885:886   */\n      dup2\n        /* \"#utility.yul\":880:883   */\n      dup5\n        /* \"#utility.yul\":876:887   */\n      add\n        /* \"#utility.yul\":869:908   */\n      mstore\n        /* \"#utility.yul\":841:843   */\n      0x20\n        /* \"#utility.yul\":838:839   */\n      dup2\n        /* \"#utility.yul\":834:844   */\n      add\n        /* \"#utility.yul\":829:844   */\n      swap1\n      pop\n        /* \"#utility.yul\":805:918   */\n      jump(tag_98)\n    tag_100:\n        /* \"#utility.yul\":952:953   */\n      0x00\n        /* \"#utility.yul\":943:949   */\n      dup5\n        /* \"#utility.yul\":938:941   */\n      dup5\n        /* \"#utility.yul\":934:950   */\n      add\n        /* \"#utility.yul\":927:954   */\n      mstore\n        /* \"#utility.yul\":776:960   */\n      pop\n        /* \"#utility.yul\":714:960   */\n      pop\n      pop\n      pop\n      jump\t// out\n        /* \"#utility.yul\":966:1068   */\n    tag_58:\n        /* \"#utility.yul\":1007:1013   */\n      0x00\n        /* \"#utility.yul\":1058:1060   */\n      0x1f\n        /* \"#utility.yul\":1054:1061   */\n      not\n        /* \"#utility.yul\":1049:1051   */\n      0x1f\n        /* \"#utility.yul\":1042:1047   */\n      dup4\n        /* \"#utility.yul\":1038:1052   */\n      add\n        /* \"#utility.yul\":1034:1062   */\n      and\n        /* \"#utility.yul\":1024:1062   */\n      swap1\n      pop\n        /* \"#utility.yul\":966:1068   */\n      swap2\n      swap1\n      pop\n      jump\t// out\n        /* \"#utility.yul\":1074:1451   */\n    tag_59:\n        /* \"#utility.yul\":1162:1165   */\n      0x00\n        /* \"#utility.yul\":1190:1229   */\n      tag_103\n        /* \"#utility.yul\":1223:1228   */\n      dup3\n        /* \"#utility.yul\":1190:1229   */\n      tag_55\n      jump\t// in\n    tag_103:\n        /* \"#utility.yul\":1245:1316   */\n      tag_104\n        /* \"#utility.yul\":1309:1315   */\n      dup2\n        /* \"#utility.yul\":1304:1307   */\n      dup6\n        /* \"#utility.yul\":1245:1316   */\n      tag_56\n      jump\t// in\n    tag_104:\n        /* \"#utility.yul\":1238:1316   */\n      swap4\n      pop\n        /* \"#utility.yul\":1325:1390   */\n      tag_105\n        /* \"#utility.yul\":1383:1389   */\n      dup2\n        /* \"#utility.yul\":1378:1381   */\n      dup6\n        /* \"#utility.yul\":1371:1375   */\n      0x20\n        /* \"#utility.yul\":1364:1369   */\n      dup7\n        /* \"#utility.yul\":1360:1376   */\n      add\n        /* \"#utility.yul\":1325:1390   */\n      tag_57\n      jump\t// in\n    tag_105:\n        /* \"#utility.yul\":1415:1444   */\n      tag_106\n        /* \"#utility.yul\":1437:1443   */\n      dup2\n        /* \"#utility.yul\":1415:1444   */\n      tag_58\n      jump\t// in\n    tag_106:\n        /* \"#utility.yul\":1410:1413   */\n      dup5\n        /* \"#utility.yul\":1406:1445   */\n      add\n        /* \"#utility.yul\":1399:1445   */\n      swap2\n      pop\n        /* \"#utility.yul\":1166:1451   */\n      pop\n        /* \"#utility.yul\":1074:1451   */\n      swap3\n      swap2\n      pop\n      pop\n      jump\t// out\n        /* \"#utility.yul\":1457:1770   */\n    tag_15:\n        /* \"#utility.yul\":1570:1574   */\n      0x00\n        /* \"#utility.yul\":1608:1610   */\n      0x20\n        /* \"#utility.yul\":1597:1606   */\n      dup3\n        /* \"#utility.yul\":1593:1611   */\n      add\n        /* \"#utility.yul\":1585:1611   */\n      swap1\n      pop\n        /* \"#utility.yul\":1657:1666   */\n      dup2\n        /* \"#utility.yul\":1651:1655   */\n      dup2\n        /* \"#utility.yul\":1647:1667   */\n      sub\n        /* \"#utility.yul\":1643:1644   */\n      0x00\n        /* \"#utility.yul\":1632:1641   */\n      dup4\n        /* \"#utility.yul\":1628:1645   */\n      add\n        /* \"#utility.yul\":1621:1668   */\n      mstore\n        /* \"#utility.yul\":1685:1763   */\n      tag_108\n        /* \"#utility.yul\":1758:1762   */\n      dup2\n        /* \"#utility.yul\":1749:1755   */\n      dup5\n        /* \"#utility.yul\":1685:1763   */\n      tag_59\n      jump\t// in\n    tag_108:\n        /* \"#utility.yul\":1677:1763   */\n      swap1\n      pop\n        /* \"#utility.yul\":1457:1770   */\n      swap3\n      swap2\n      pop\n      pop\n      jump\t// out\n        /* \"#utility.yul\":1857:1974   */\n    tag_61:\n        /* \"#utility.yul\":1966:1967   */\n      0x00\n        /* \"#utility.yul\":1963:1964   */\n      dup1\n        /* \"#utility.yul\":1956:1968   */\n      revert\n        /* \"#utility.yul\":1980:2097   */\n    tag_62:\n        /* \"#utility.yul\":2089:2090   */\n      0x00\n        /* \"#utility.yul\":2086:2087   */\n      dup1\n        /* \"#utility.yul\":2079:2091   */\n      revert\n        /* \"#utility.yul\":2103:2220   */\n    tag_63:\n        /* \"#utility.yul\":2212:2213   */\n      0x00\n        /* \"#utility.yul\":2209:2210   */\n      dup1\n        /* \"#utility.yul\":2202:2214   */\n      revert\n        /* \"#utility.yul\":2226:2343   */\n    tag_64:\n        /* \"#utility.yul\":2335:2336   */\n      0x00\n        /* \"#utility.yul\":2332:2333   */\n      dup1\n        /* \"#utility.yul\":2325:2337   */\n      revert\n        /* \"#utility.yul\":2349:2466   */\n    tag_65:\n        /* \"#utility.yul\":2458:2459   */\n      0x00\n        /* \"#utility.yul\":2455:2456   */\n      dup1\n        /* \"#utility.yul\":2448:2460   */\n      revert\n        /* \"#utility.yul\":2486:3039   */\n    tag_66:\n        /* \"#utility.yul\":2544:2552   */\n      0x00\n        /* \"#utility.yul\":2554:2560   */\n      dup1\n        /* \"#utility.yul\":2604:2607   */\n      dup4\n        /* \"#utility.yul\":2597:2601   */\n      0x1f\n        /* \"#utility.yul\":2589:2595   */\n      dup5\n        /* \"#utility.yul\":2585:2602   */\n      add\n        /* \"#utility.yul\":2581:2608   */\n      slt\n        /* \"#utility.yul\":2571:2693   */\n      tag_116\n      jumpi\n        /* \"#utility.yul\":2612:2691   */\n      tag_117\n      tag_63\n      jump\t// in\n    tag_117:\n        /* \"#utility.yul\":2571:2693   */\n    tag_116:\n        /* \"#utility.yul\":2725:2731   */\n      dup3\n        /* \"#utility.yul\":2712:2732   */\n      calldataload\n        /* \"#utility.yul\":2702:2732   */\n      swap1\n      pop\n        /* \"#utility.yul\":2755:2773   */\n      0xffffffffffffffff\n        /* \"#utility.yul\":2747:2753   */\n      dup2\n        /* \"#utility.yul\":2744:2774   */\n      gt\n        /* \"#utility.yul\":2741:2858   */\n      iszero\n      tag_118\n      jumpi\n        /* \"#utility.yul\":2777:2856   */\n      tag_119\n      tag_64\n      jump\t// in\n    tag_119:\n        /* \"#utility.yul\":2741:2858   */\n    tag_118:\n        /* \"#utility.yul\":2891:2895   */\n      0x20\n        /* \"#utility.yul\":2883:2889   */\n      dup4\n        /* \"#utility.yul\":2879:2896   */\n      add\n        /* \"#utility.yul\":2867:2896   */\n      swap2\n      pop\n        /* \"#utility.yul\":2945:2948   */\n      dup4\n        /* \"#utility.yul\":2937:2941   */\n      0x01\n        /* \"#utility.yul\":2929:2935   */\n      dup3\n        /* \"#utility.yul\":2925:2942   */\n      mul\n        /* \"#utility.yul\":2915:2923   */\n      dup4\n        /* \"#utility.yul\":2911:2943   */\n      add\n        /* \"#utility.yul\":2908:2949   */\n      gt\n        /* \"#utility.yul\":2905:3033   */\n      iszero\n      tag_120\n      jumpi\n        /* \"#utility.yul\":2952:3031   */\n      tag_121\n      tag_65\n      jump\t// in\n    tag_121:\n        /* \"#utility.yul\":2905:3033   */\n    tag_120:\n        /* \"#utility.yul\":2486:3039   */\n      swap3\n      pop\n      swap3\n      swap1\n      pop\n      jump\t// out\n        /* \"#utility.yul\":3045:3574   */\n    tag_21:\n        /* \"#utility.yul\":3116:3122   */\n      0x00\n        /* \"#utility.yul\":3124:3130   */\n      dup1\n        /* \"#utility.yul\":3173:3175   */\n      0x20\n        /* \"#utility.yul\":3161:3170   */\n      dup4\n        /* \"#utility.yul\":3152:3159   */\n      dup6\n        /* \"#utility.yul\":3148:3171   */\n      sub\n        /* \"#utility.yul\":3144:3176   */\n      slt\n        /* \"#utility.yul\":3141:3260   */\n      iszero\n      tag_123\n      jumpi\n        /* \"#utility.yul\":3179:3258   */\n      tag_124\n      tag_61\n      jump\t// in\n    tag_124:\n        /* \"#utility.yul\":3141:3260   */\n    tag_123:\n        /* \"#utility.yul\":3327:3328   */\n      0x00\n        /* \"#utility.yul\":3316:3325   */\n      dup4\n        /* \"#utility.yul\":3312:3329   */\n      add\n        /* \"#utility.yul\":3299:3330   */\n      calldataload\n        /* \"#utility.yul\":3357:3375   */\n      0xffffffffffffffff\n        /* \"#utility.yul\":3349:3355   */\n      dup2\n        /* \"#utility.yul\":3346:3376   */\n      gt\n        /* \"#utility.yul\":3343:3460   */\n      iszero\n      tag_125\n      jumpi\n        /* \"#utility.yul\":3379:3458   */\n      tag_126\n      tag_62\n      jump\t// in\n    tag_126:\n        /* \"#utility.yul\":3343:3460   */\n    tag_125:\n        /* \"#utility.yul\":3492:3557   */\n      tag_127\n        /* \"#utility.yul\":3549:3556   */\n      dup6\n        /* \"#utility.yul\":3540:3546   */\n      dup3\n        /* \"#utility.yul\":3529:3538   */\n      dup7\n        /* \"#utility.yul\":3525:3547   */\n      add\n        /* \"#utility.yul\":3492:3557   */\n      tag_66\n      jump\t// in\n    tag_127:\n        /* \"#utility.yul\":3474:3557   */\n      swap3\n      pop\n      swap3\n      pop\n        /* \"#utility.yul\":3270:3567   */\n      pop\n        /* \"#utility.yul\":3045:3574   */\n      swap3\n      pop\n      swap3\n      swap1\n      pop\n      jump\t// out\n        /* \"#utility.yul\":3580:3677   */\n    tag_67:\n        /* \"#utility.yul\":3639:3645   */\n      0x00\n        /* \"#utility.yul\":3667:3670   */\n      dup3\n        /* \"#utility.yul\":3657:3670   */\n      swap1\n      pop\n        /* \"#utility.yul\":3580:3677   */\n      swap3\n      swap2\n      pop\n      pop\n      jump\t// out\n        /* \"#utility.yul\":3683:3863   */\n    tag_68:\n        /* \"#utility.yul\":3731:3808   */\n      0x4e487b7100000000000000000000000000000000000000000000000000000000\n        /* \"#utility.yul\":3728:3729   */\n      0x00\n        /* \"#utility.yul\":3721:3809   */\n      mstore\n        /* \"#utility.yul\":3828:3832   */\n      0x41\n        /* \"#utility.yul\":3825:3826   */\n      0x04\n        /* \"#utility.yul\":3818:3833   */\n      mstore\n        /* \"#utility.yul\":3852:3856   */\n      0x24\n        /* \"#utility.yul\":3849:3850   */\n      0x00\n        /* \"#utility.yul\":3842:3857   */\n      revert\n        /* \"#utility.yul\":3869:4049   */\n    tag_69:\n        /* \"#utility.yul\":3917:3994   */\n      0x4e487b7100000000000000000000000000000000000000000000000000000000\n        /* \"#utility.yul\":3914:3915   */\n      0x00\n        /* \"#utility.yul\":3907:3995   */\n      mstore\n        /* \"#utility.yul\":4014:4018   */\n      0x22\n        /* \"#utility.yul\":4011:4012   */\n      0x04\n        /* \"#utility.yul\":4004:4019   */\n      mstore\n        /* \"#utility.yul\":4038:4042   */\n      0x24\n        /* \"#utility.yul\":4035:4036   */\n      0x00\n        /* \"#utility.yul\":4028:4043   */\n      revert\n        /* \"#utility.yul\":4055:4375   */\n    tag_40:\n        /* \"#utility.yul\":4099:4105   */\n      0x00\n        /* \"#utility.yul\":4136:4137   */\n      0x02\n        /* \"#utility.yul\":4130:4134   */\n      dup3\n        /* \"#utility.yul\":4126:4138   */\n      div\n        /* \"#utility.yul\":4116:4138   */\n      swap1\n      pop\n        /* \"#utility.yul\":4183:4184   */\n      0x01\n        /* \"#utility.yul\":4177:4181   */\n      dup3\n        /* \"#utility.yul\":4173:4185   */\n      and\n        /* \"#utility.yul\":4204:4222   */\n      dup1\n        /* \"#utility.yul\":4194:4275   */\n      tag_132\n      jumpi\n        /* \"#utility.yul\":4260:4264   */\n      0x7f\n        /* \"#utility.yul\":4252:4258   */\n      dup3\n        /* \"#utility.yul\":4248:4265   */\n      and\n        /* \"#utility.yul\":4238:4265   */\n      swap2\n      pop\n        /* \"#utility.yul\":4194:4275   */\n    tag_132:\n        /* \"#utility.yul\":4322:4324   */\n      0x20\n        /* \"#utility.yul\":4314:4320   */\n      dup3\n        /* \"#utility.yul\":4311:4325   */\n      lt\n        /* \"#utility.yul\":4291:4309   */\n      dup2\n        /* \"#utility.yul\":4288:4326   */\n      sub\n        /* \"#utility.yul\":4285:4369   */\n      tag_133\n      jumpi\n        /* \"#utility.yul\":4341:4359   */\n      tag_134\n      tag_69\n      jump\t// in\n    tag_134:\n        /* \"#utility.yul\":4285:4369   */\n    tag_133:\n        /* \"#utility.yul\":4106:4375   */\n      pop\n        /* \"#utility.yul\":4055:4375   */\n      swap2\n      swap1\n      pop\n      jump\t// out\n        /* \"#utility.yul\":4381:4522   */\n    tag_70:\n        /* \"#utility.yul\":4430:4434   */\n      0x00\n        /* \"#utility.yul\":4453:4456   */\n      dup2\n        /* \"#utility.yul\":4445:4456   */\n      swap1\n      pop\n        /* \"#utility.yul\":4476:4479   */\n      dup2\n        /* \"#utility.yul\":4473:4474   */\n      0x00\n        /* \"#utility.yul\":4466:4480   */\n      mstore\n        /* \"#utility.yul\":4510:4514   */\n      0x20\n        /* \"#utility.yul\":4507:4508   */\n      0x00\n        /* \"#utility.yul\":4497:4515   */\n      keccak256\n        /* \"#utility.yul\":4489:4515   */\n      swap1\n      pop\n        /* \"#utility.yul\":4381:4522   */\n      swap2\n      swap1\n      pop\n      jump\t// out\n        /* \"#utility.yul\":4528:4621   */\n    tag_71:\n        /* \"#utility.yul\":4565:4571   */\n      0x00\n        /* \"#utility.yul\":4612:4614   */\n      0x20\n        /* \"#utility.yul\":4607:4609   */\n      0x1f\n        /* \"#utility.yul\":4600:4605   */\n      dup4\n        /* \"#utility.yul\":4596:4610   */\n      add\n        /* \"#utility.yul\":4592:4615   */\n      div\n        /* \"#utility.yul\":4582:4615   */\n      swap1\n      pop\n        /* \"#utility.yul\":4528:4621   */\n      swap2\n      swap1\n      pop\n      jump\t// out\n        /* \"#utility.yul\":4627:4734   */\n    tag_72:\n        /* \"#utility.yul\":4671:4679   */\n      0x00\n        /* \"#utility.yul\":4721:4726   */\n      dup3\n        /* \"#utility.yul\":4715:4719   */\n      dup3\n        /* \"#utility.yul\":4711:4727   */\n      shl\n        /* \"#utility.yul\":4690:4727   */\n      swap1\n      pop\n        /* \"#utility.yul\":4627:4734   */\n      swap3\n      swap2\n      pop\n      pop\n      jump\t// out\n        /* \"#utility.yul\":4740:5133   */\n    tag_73:\n        /* \"#utility.yul\":4809:4815   */\n      0x00\n        /* \"#utility.yul\":4859:4860   */\n      0x08\n        /* \"#utility.yul\":4847:4857   */\n      dup4\n        /* \"#utility.yul\":4843:4861   */\n      mul\n        /* \"#utility.yul\":4882:4979   */\n      tag_139\n        /* \"#utility.yul\":4912:4978   */\n      0xffffffffffffffffffffffffffffffffffffffffffffffffffffffffffffffff\n        /* \"#utility.yul\":4901:4910   */\n      dup3\n        /* \"#utility.yul\":4882:4979   */\n      tag_72\n      jump\t// in\n    tag_139:\n        /* \"#utility.yul\":5000:5039   */\n      tag_140\n        /* \"#utility.yul\":5030:5038   */\n      dup7\n        /* \"#utility.yul\":5019:5028   */\n      dup4\n        /* \"#utility.yul\":5000:5039   */\n      tag_72\n      jump\t// in\n    tag_140:\n        /* \"#utility.yul\":4988:5039   */\n      swap6\n      pop\n        /* \"#utility.yul\":5072:5076   */\n      dup1\n        /* \"#utility.yul\":5068:5077   */\n      not\n        /* \"#utility.yul\":5061:5066   */\n      dup5\n        /* \"#utility.yul\":5057:5078   */\n      and\n        /* \"#utility.yul\":5048:5078   */\n      swap4\n      pop\n        /* \"#utility.yul\":5121:5125   */\n      dup1\n        /* \"#utility.yul\":5111:5119   */\n      dup7\n        /* \"#utility.yul\":5107:5126   */\n      and\n        /* \"#utility.yul\":5100:5105   */\n      dup5\n        /* \"#utility.yul\":5097:5127   */\n      or\n        /* \"#utility.yul\":5087:5127   */\n      swap3\n      pop\n        /* \"#utility.yul\":4816:5133   */\n      pop\n      pop\n        /* \"#utility.yul\":4740:5133   */\n      swap4\n      swap3\n      pop\n      pop\n      pop\n      jump\t// out\n        /* \"#utility.yul\":5139:5216   */\n    tag_74:\n        /* \"#utility.yul\":5176:5183   */\n      0x00\n        /* \"#utility.yul\":5205:5210   */\n      dup2\n        /* \"#utility.yul\":5194:5210   */\n      swap1\n      pop\n        /* \"#utility.yul\":5139:5216   */\n      swap2\n      swap1\n      pop\n      jump\t// out\n        /* \"#utility.yul\":5222:5282   */\n    tag_75:\n        /* \"#utility.yul\":5250:5253   */\n      0x00\n        /* \"#utility.yul\":5271:5276   */\n      dup2\n        /* \"#utility.yul\":5264:5276   */\n      swap1\n      pop\n        /* \"#utility.yul\":5222:5282   */\n      swap2\n      swap1\n      pop\n      jump\t// out\n        /* \"#utility.yul\":5288:5430   */\n    tag_76:\n        /* \"#utility.yul\":5338:5347   */\n      0x00\n        /* \"#utility.yul\":5371:5424   */\n      tag_144\n        /* \"#utility.yul\":5389:5423   */\n      tag_145\n        /* \"#utility.yul\":5398:5422   */\n      tag_146\n        /* \"#utility.yul\":5416:5421   */\n      dup5\n        /* \"#utility.yul\":5398:5422   */\n      tag_74\n      jump\t// in\n    tag_146:\n        /* \"#utility.yul\":5389:5423   */\n      tag_75\n      jump\t// in\n    tag_145:\n        /* \"#utility.yul\":5371:5424   */\n      tag_74\n      jump\t// in\n    tag_144:\n        /* \"#utility.yul\":5358:5424   */\n      swap1\n      pop\n        /* \"#utility.yul\":5288:5430   */\n      swap2\n      swap1\n      pop\n      jump\t// out\n        /* \"#utility.yul\":5436:5511   */\n    tag_77:\n        /* \"#utility.yul\":5479:5482   */\n      0x00\n        /* \"#utility.yul\":5500:5505   */\n      dup2\n        /* \"#utility.yul\":5493:5505   */\n      swap1\n      pop\n        /* \"#utility.yul\":5436:5511   */\n      swap2\n      swap1\n      pop\n      jump\t// out\n        /* \"#utility.yul\":5517:5786   */\n    tag_78:\n        /* \"#utility.yul\":5627:5666   */\n      tag_149\n        /* \"#utility.yul\":5658:5665   */\n      dup4\n        /* \"#utility.yul\":5627:5666   */\n      tag_76\n      jump\t// in\n    tag_149:\n        /* \"#utility.yul\":5688:5779   */\n      tag_150\n        /* \"#utility.yul\":5737:5778   */\n      tag_151\n        /* \"#utility.yul\":5761:5777   */\n      dup3\n        /* \"#utility.yul\":5737:5778   */\n      tag_77\n      jump\t// in\n    tag_151:\n        /* \"#utility.yul\":5729:5735   */\n      dup5\n        /* \"#utility.yul\":5722:5726   */\n      dup5\n        /* \"#utility.yul\":5716:5727   */\n      sload\n        /* \"#utility.yul\":5688:5779   */\n      tag_73\n      jump\t// in\n    tag_150:\n        /* \"#utility.yul\":5682:5686   */\n      dup3\n        /* \"#utility.yul\":5675:5780   */\n      sstore\n        /* \"#utility.yul\":5593:5786   */\n      pop\n        /* \"#utility.yul\":5517:5786   */\n      pop\n      pop\n      pop\n      jump\t// out\n        /* \"#utility.yul\":5792:5865   */\n    tag_79:\n        /* \"#utility.yul\":5837:5840   */\n      0x00\n        /* \"#utility.yul\":5792:5865   */\n      swap1\n      jump\t// out\n        /* \"#utility.yul\":5871:6060   */\n    tag_80:\n        /* \"#utility.yul\":5948:5980   */\n      tag_154\n      tag_79\n      jump\t// in\n    tag_154:\n        /* \"#utility.yul\":5989:6054   */\n      tag_155\n        /* \"#utility.yul\":6047:6053   */\n      dup2\n        /* \"#utility.yul\":6039:6045   */\n      dup5\n        /* \"#utility.yul\":6033:6037   */\n      dup5\n        /* \"#utility.yul\":5989:6054   */\n      tag_78\n      jump\t// in\n    tag_155:\n        /* \"#utility.yul\":5924:6060   */\n      pop\n        /* \"#utility.yul\":5871:6060   */\n      pop\n      pop\n      jump\t// out\n        /* \"#utility.yul\":6066:6252   */\n    tag_81:\n        /* \"#utility.yul\":6126:6246   */\n    tag_157:\n        /* \"#utility.yul\":6143:6146   */\n      dup2\n        /* \"#utility.yul\":6136:6141   */\n      dup2\n        /* \"#utility.yul\":6133:6147   */\n      lt\n        /* \"#utility.yul\":6126:6246   */\n      iszero\n      tag_159\n      jumpi\n        /* \"#utility.yul\":6197:6236   */\n      tag_160\n        /* \"#utility.yul\":6234:6235   */\n      0x00\n        /* \"#utility.yul\":6227:6232   */\n      dup3\n        /* \"#utility.yul\":6197:6236   */\n      tag_80\n      jump\t// in\n    tag_160:\n        /* \"#utility.yul\":6170:6171   */\n      0x01\n        /* \"#utility.yul\":6163:6168   */\n      dup2\n        /* \"#utility.yul\":6159:6172   */\n      add\n        /* \"#utility.yul\":6150:6172   */\n      swap1\n      pop\n        /* \"#utility.yul\":6126:6246   */\n      jump(tag_157)\n    tag_159:\n        /* \"#utility.yul\":6066:6252   */\n      pop\n      pop\n      jump\t// out\n        /* \"#utility.yul\":6258:6801   */\n    tag_82:\n        /* \"#utility.yul\":6359:6361   */\n      0x1f\n        /* \"#utility.yul\":6354:6357   */\n      dup3\n        /* \"#utility.yul\":6351:6362   */\n      gt\n        /* \"#utility.yul\":6348:6794   */\n      iszero\n      tag_162\n      jumpi\n        /* \"#utility.yul\":6393:6431   */\n      tag_163\n        /* \"#utility.yul\":6425:6430   */\n      dup2\n        /* \"#utility.yul\":6393:6431   */\n      tag_70\n      jump\t// in\n    tag_163:\n        /* \"#utility.yul\":6477:6506   */\n      tag_164\n        /* \"#utility.yul\":6495:6505   */\n      dup5\n        /* \"#utility.yul\":6477:6506   */\n      tag_71\n      jump\t// in\n    tag_164:\n        /* \"#utility.yul\":6467:6475   */\n      dup2\n        /* \"#utility.yul\":6463:6507   */\n      add\n        /* \"#utility.yul\":6660:6662   */\n      0x20\n        /* \"#utility.yul\":6648:6658   */\n      dup6\n        /* \"#utility.yul\":6645:6663   */\n      lt\n        /* \"#utility.yul\":6642:6691   */\n      iszero\n      tag_165\n      jumpi\n        /* \"#utility.yul\":6681:6689   */\n      dup2\n        /* \"#utility.yul\":6666:6689   */\n      swap1\n      pop\n        /* \"#utility.yul\":6642:6691   */\n    tag_165:\n        /* \"#utility.yul\":6704:6784   */\n      tag_166\n        /* \"#utility.yul\":6760:6782   */\n      tag_167\n        /* \"#utility.yul\":6778:6781   */\n      dup6\n        /* \"#utility.yul\":6760:6782   */\n      tag_71\n      jump\t// in\n    tag_167:\n        /* \"#utility.yul\":6750:6758   */\n      dup4\n        /* \"#utility.yul\":6746:6783   */\n      add\n        /* \"#utility.yul\":6733:6744   */\n      dup3\n        /* \"#utility.yul\":6704:6784   */\n      tag_81\n      jump\t// in\n    tag_166:\n        /* \"#utility.yul\":6363:6794   */\n      pop\n      pop\n        /* \"#utility.yul\":6348:6794   */\n    tag_162:\n        /* \"#utility.yul\":6258:6801   */\n      pop\n      pop\n      pop\n      jump\t// out\n        /* \"#utility.yul\":6807:6924   */\n    tag_83:\n        /* \"#utility.yul\":6861:6869   */\n      0x00\n        /* \"#utility.yul\":6911:6916   */\n      dup3\n        /* \"#utility.yul\":6905:6909   */\n      dup3\n        /* \"#utility.yul\":6901:6917   */\n      shr\n        /* \"#utility.yul\":6880:6917   */\n      swap1\n      pop\n        /* \"#utility.yul\":6807:6924   */\n      swap3\n      swap2\n      pop\n      pop\n      jump\t// out\n        /* \"#utility.yul\":6930:7099   */\n    tag_84:\n        /* \"#utility.yul\":6974:6980   */\n      0x00\n        /* \"#utility.yul\":7007:7058   */\n      tag_170\n        /* \"#utility.yul\":7055:7056   */\n      0x00\n        /* \"#utility.yul\":7051:7057   */\n      not\n        /* \"#utility.yul\":7043:7048   */\n      dup5\n        /* \"#utility.yul\":7040:7041   */\n      0x08\n        /* \"#utility.yul\":7036:7049   */\n      mul\n        /* \"#utility.yul\":7007:7058   */\n      tag_83\n      jump\t// in\n    tag_170:\n        /* \"#utility.yul\":7003:7059   */\n      not\n        /* \"#utility.yul\":7088:7092   */\n      dup1\n        /* \"#utility.yul\":7082:7086   */\n      dup4\n        /* \"#utility.yul\":7078:7093   */\n      and\n        /* \"#utility.yul\":7068:7093   */\n      swap2\n      pop\n        /* \"#utility.yul\":6981:7099   */\n      pop\n        /* \"#utility.yul\":6930:7099   */\n      swap3\n      swap2\n      pop\n      pop\n      jump\t// out\n        /* \"#utility.yul\":7104:7399   */\n    tag_85:\n        /* \"#utility.yul\":7180:7184   */\n      0x00\n        /* \"#utility.yul\":7326:7355   */\n      tag_172\n        /* \"#utility.yul\":7351:7354   */\n      dup4\n        /* \"#utility.yul\":7345:7349   */\n      dup4\n        /* \"#utility.yul\":7326:7355   */\n      tag_84\n      jump\t// in\n    tag_172:\n        /* \"#utility.yul\":7318:7355   */\n      swap2\n      pop\n        /* \"#utility.yul\":7388:7391   */\n      dup3\n        /* \"#utility.yul\":7385:7386   */\n      0x02\n        /* \"#utility.yul\":7381:7392   */\n      mul\n        /* \"#utility.yul\":7375:7379   */\n      dup3\n        /* \"#utility.yul\":7372:7393   */\n      or\n        /* \"#utility.yul\":7364:7393   */\n      swap1\n      pop\n        /* \"#utility.yul\":7104:7399   */\n      swap3\n      swap2\n      pop\n      pop\n      jump\t// out\n        /* \"#utility.yul\":7404:8807   */\n    tag_37:\n        /* \"#utility.yul\":7528:7572   */\n      tag_174\n        /* \"#utility.yul\":7568:7571   */\n      dup4\n        /* \"#utility.yul\":7563:7566   */\n      dup4\n        /* \"#utility.yul\":7528:7572   */\n      tag_67\n      jump\t// in\n    tag_174:\n        /* \"#utility.yul\":7637:7655   */\n      0xffffffffffffffff\n        /* \"#utility.yul\":7629:7635   */\n      dup2\n        /* \"#utility.yul\":7626:7656   */\n      gt\n        /* \"#utility.yul\":7623:7679   */\n      iszero\n      tag_175\n      jumpi\n        /* \"#utility.yul\":7659:7677   */\n      tag_176\n      tag_68\n      jump\t// in\n    tag_176:\n        /* \"#utility.yul\":7623:7679   */\n    tag_175:\n        /* \"#utility.yul\":7703:7741   */\n      tag_177\n        /* \"#utility.yul\":7735:7739   */\n      dup3\n        /* \"#utility.yul\":7729:7740   */\n      sload\n        /* \"#utility.yul\":7703:7741   */\n      tag_40\n      jump\t// in\n    tag_177:\n        /* \"#utility.yul\":7788:7855   */\n      tag_178\n        /* \"#utility.yul\":7848:7854   */\n      dup3\n        /* \"#utility.yul\":7840:7846   */\n      dup3\n        /* \"#utility.yul\":7834:7838   */\n      dup6\n        /* \"#utility.yul\":7788:7855   */\n      tag_82\n      jump\t// in\n    tag_178:\n        /* \"#utility.yul\":7882:7883   */\n      0x00\n        /* \"#utility.yul\":7911:7913   */\n      0x1f\n        /* \"#utility.yul\":7903:7909   */\n      dup4\n        /* \"#utility.yul\":7900:7914   */\n      gt\n        /* \"#utility.yul\":7928:7929   */\n      0x01\n        /* \"#utility.yul\":7923:8555   */\n      dup2\n      eq\n      tag_180\n      jumpi\n        /* \"#utility.yul\":8599:8600   */\n      0x00\n        /* \"#utility.yul\":8616:8622   */\n      dup5\n        /* \"#utility.yul\":8613:8697   */\n      iszero\n      tag_181\n      jumpi\n        /* \"#utility.yul\":8672:8681   */\n      dup3\n        /* \"#utility.yul\":8667:8670   */\n      dup8\n        /* \"#utility.yul\":8663:8682   */\n      add\n        /* \"#utility.yul\":8650:8683   */\n      calldataload\n        /* \"#utility.yul\":8641:8683   */\n      swap1\n      pop\n        /* \"#utility.yul\":8613:8697   */\n    tag_181:\n        /* \"#utility.yul\":8723:8790   */\n      tag_182\n        /* \"#utility.yul\":8783:8789   */\n      dup6\n        /* \"#utility.yul\":8776:8781   */\n      dup3\n        /* \"#utility.yul\":8723:8790   */\n      tag_85\n      jump\t// in\n    tag_182:\n        /* \"#utility.yul\":8717:8721   */\n      dup7\n        /* \"#utility.yul\":8710:8791   */\n      sstore\n        /* \"#utility.yul\":8572:8801   */\n      pop\n        /* \"#utility.yul\":7893:8801   */\n      jump(tag_179)\n        /* \"#utility.yul\":7923:8555   */\n    tag_180:\n        /* \"#utility.yul\":7975:7979   */\n      0x1f\n        /* \"#utility.yul\":7971:7980   */\n      not\n        /* \"#utility.yul\":7963:7969   */\n      dup5\n        /* \"#utility.yul\":7959:7981   */\n      and\n        /* \"#utility.yul\":8009:8046   */\n      tag_183\n        /* \"#utility.yul\":8041:8045   */\n      dup7\n        /* \"#utility.yul\":8009:8046   */\n      tag_70\n      jump\t// in\n    tag_183:\n        /* \"#utility.yul\":8068:8069   */\n      0x00\n        /* \"#utility.yul\":8082:8297   */\n    tag_184:\n        /* \"#utility.yul\":8096:8103   */\n      dup3\n        /* \"#utility.yul\":8093:8094   */\n      dup2\n        /* \"#utility.yul\":8090:8104   */\n      lt\n        /* \"#utility.yul\":8082:8297   */\n      iszero\n      tag_186\n      jumpi\n        /* \"#utility.yul\":8182:8191   */\n      dup5\n        /* \"#utility.yul\":8177:8180   */\n      dup10\n        /* \"#utility.yul\":8173:8192   */\n      add\n        /* \"#utility.yul\":8160:8193   */\n      calldataload\n        /* \"#utility.yul\":8152:8158   */\n      dup3\n        /* \"#utility.yul\":8145:8194   */\n      sstore\n        /* \"#utility.yul\":8233:8234   */\n      0x01\n        /* \"#utility.yul\":8225:8231   */\n      dup3\n        /* \"#utility.yul\":8221:8235   */\n      add\n        /* \"#utility.yul\":8211:8235   */\n      swap2\n      pop\n        /* \"#utility.yul\":8280:8282   */\n      0x20\n        /* \"#utility.yul\":8269:8278   */\n      dup6\n        /* \"#utility.yul\":8265:8283   */\n      add\n        /* \"#utility.yul\":8252:8283   */\n      swap5\n      pop\n        /* \"#utility.yul\":8119:8123   */\n      0x20\n        /* \"#utility.yul\":8116:8117   */\n      dup2\n        /* \"#utility.yul\":8112:8124   */\n      add\n        /* \"#utility.yul\":8107:8124   */\n      swap1\n      pop\n        /* \"#utility.yul\":8082:8297   */\n      jump(tag_184)\n    tag_186:\n        /* \"#utility.yul\":8325:8331   */\n      dup7\n        /* \"#utility.yul\":8316:8323   */\n      dup4\n        /* \"#utility.yul\":8313:8332   */\n      lt\n        /* \"#utility.yul\":8310:8496   */\n      iszero\n      tag_187\n      jumpi\n        /* \"#utility.yul\":8390:8399   */\n      dup5\n        /* \"#utility.yul\":8385:8388   */\n      dup10\n        /* \"#utility.yul\":8381:8400   */\n      add\n        /* \"#utility.yul\":8368:8401   */\n      calldataload\n        /* \"#utility.yul\":8433:8481   */\n      tag_188\n        /* \"#utility.yul\":8475:8479   */\n      0x1f\n        /* \"#utility.yul\":8467:8473   */\n      dup10\n        /* \"#utility.yul\":8463:8480   */\n      and\n        /* \"#utility.yul\":8452:8461   */\n      dup3\n        /* \"#utility.yul\":8433:8481   */\n      tag_84\n      jump\t// in\n    tag_188:\n        /* \"#utility.yul\":8425:8431   */\n      dup4\n        /* \"#utility.yul\":8418:8482   */\n      sstore\n        /* \"#utility.yul\":8333:8496   */\n      pop\n        /* \"#utility.yul\":8310:8496   */\n    tag_187:\n        /* \"#utility.yul\":8542:8543   */\n      0x01\n        /* \"#utility.yul\":8538:8539   */\n      0x02\n        /* \"#utility.yul\":8530:8536   */\n      dup9\n        /* \"#utility.yul\":8526:8540   */\n      mul\n        /* \"#utility.yul\":8522:8544   */\n      add\n        /* \"#utility.yul\":8516:8520   */\n      dup9\n        /* \"#utility.yul\":8509:8545   */\n      sstore\n        /* \"#utility.yul\":7930:8555   */\n      pop\n      pop\n      pop\n        /* \"#utility.yul\":7893:8801   */\n    tag_179:\n      pop\n        /* \"#utility.yul\":7503:8807   */\n      pop\n      pop\n      pop\n        /* \"#utility.yul\":7404:8807   */\n      pop\n      pop\n      pop\n      jump\t// out\n        /* \"#utility.yul\":8813:8960   */\n    tag_86:\n        /* \"#utility.yul\":8914:8925   */\n      0x00\n        /* \"#utility.yul\":8951:8954   */\n      dup2\n        /* \"#utility.yul\":8936:8954   */\n      swap1\n      pop\n        /* \"#utility.yul\":8813:8960   */\n      swap3\n      swap2\n      pop\n      pop\n      jump\t// out\n        /* \"#utility.yul\":8966:9110   */\n    tag_87:\n        /* \"#utility.yul\":9018:9022   */\n      0x00\n        /* \"#utility.yul\":9041:9044   */\n      dup2\n        /* \"#utility.yul\":9033:9044   */\n      swap1\n      pop\n        /* \"#utility.yul\":9064:9067   */\n      dup2\n        /* \"#utility.yul\":9061:9062   */\n      0x00\n        /* \"#utility.yul\":9054:9068   */\n      mstore\n        /* \"#utility.yul\":9098:9102   */\n      0x20\n        /* \"#utility.yul\":9095:9096   */\n      0x00\n        /* \"#utility.yul\":9085:9103   */\n      keccak256\n        /* \"#utility.yul\":9077:9103   */\n      swap1\n      pop\n        /* \"#utility.yul\":8966:9110   */\n      swap2\n      swap1\n      pop\n      jump\t// out\n        /* \"#utility.yul\":9138:10016   */\n    tag_88:\n        /* \"#utility.yul\":9243:9246   */\n      0x00\n        /* \"#utility.yul\":9280:9285   */\n      dup2\n        /* \"#utility.yul\":9274:9286   */\n      sload\n        /* \"#utility.yul\":9309:9345   */\n      tag_192\n        /* \"#utility.yul\":9335:9344   */\n      dup2\n        /* \"#utility.yul\":9309:9345   */\n      tag_40\n      jump\t// in\n    tag_192:\n        /* \"#utility.yul\":9361:9449   */\n      tag_193\n        /* \"#utility.yul\":9442:9448   */\n      dup2\n        /* \"#utility.yul\":9437:9440   */\n      dup7\n        /* \"#utility.yul\":9361:9449   */\n      tag_86\n      jump\t// in\n    tag_193:\n        /* \"#utility.yul\":9354:9449   */\n      swap5\n      pop\n        /* \"#utility.yul\":9480:9481   */\n      0x01\n        /* \"#utility.yul\":9469:9478   */\n      dup3\n        /* \"#utility.yul\":9465:9482   */\n      and\n        /* \"#utility.yul\":9496:9497   */\n      0x00\n        /* \"#utility.yul\":9491:9657   */\n      dup2\n      eq\n      tag_195\n      jumpi\n        /* \"#utility.yul\":9671:9672   */\n      0x01\n        /* \"#utility.yul\":9666:10010   */\n      dup2\n      eq\n      tag_196\n      jumpi\n        /* \"#utility.yul\":9458:10010   */\n      jump(tag_194)\n        /* \"#utility.yul\":9491:9657   */\n    tag_195:\n        /* \"#utility.yul\":9575:9579   */\n      0xff\n        /* \"#utility.yul\":9571:9580   */\n      not\n        /* \"#utility.yul\":9560:9569   */\n      dup4\n        /* \"#utility.yul\":9556:9581   */\n      and\n        /* \"#utility.yul\":9551:9554   */\n      dup7\n        /* \"#utility.yul\":9544:9582   */\n      mstore\n        /* \"#utility.yul\":9637:9643   */\n      dup2\n        /* \"#utility.yul\":9630:9644   */\n      iszero\n        /* \"#utility.yul\":9623:9645   */\n      iszero\n        /* \"#utility.yul\":9615:9621   */\n      dup3\n        /* \"#utility.yul\":9611:9646   */\n      mul\n        /* \"#utility.yul\":9606:9609   */\n      dup7\n        /* \"#utility.yul\":9602:9647   */\n      add\n        /* \"#utility.yul\":9595:9647   */\n      swap4\n      pop\n        /* \"#utility.yul\":9491:9657   */\n      jump(tag_194)\n        /* \"#utility.yul\":9666:10010   */\n    tag_196:\n        /* \"#utility.yul\":9733:9774   */\n      tag_197\n        /* \"#utility.yul\":9768:9773   */\n      dup6\n        /* \"#utility.yul\":9733:9774   */\n      tag_87\n      jump\t// in\n    tag_197:\n        /* \"#utility.yul\":9796:9797   */\n      0x00\n        /* \"#utility.yul\":9810:9964   */\n    tag_198:\n        /* \"#utility.yul\":9824:9830   */\n      dup4\n        /* \"#utility.yul\":9821:9822   */\n      dup2\n        /* \"#utility.yul\":9818:9831   */\n      lt\n        /* \"#utility.yul\":9810:9964   */\n      iszero\n      tag_200\n      jumpi\n        /* \"#utility.yul\":9898:9905   */\n      dup2\n        /* \"#utility.yul\":9892:9906   */\n      sload\n        /* \"#utility.yul\":9888:9889   */\n      dup2\n        /* \"#utility.yul\":9883:9886   */\n      dup10\n        /* \"#utility.yul\":9879:9890   */\n      add\n        /* \"#utility.yul\":9872:9907   */\n      mstore\n        /* \"#utility.yul\":9948:9949   */\n      0x01\n        /* \"#utility.yul\":9939:9946   */\n      dup3\n        /* \"#utility.yul\":9935:9950   */\n      add\n        /* \"#utility.yul\":9924:9950   */\n      swap2\n      pop\n        /* \"#utility.yul\":9846:9850   */\n      0x20\n        /* \"#utility.yul\":9843:9844   */\n      dup2\n        /* \"#utility.yul\":9839:9851   */\n      add\n        /* \"#utility.yul\":9834:9851   */\n      swap1\n      pop\n        /* \"#utility.yul\":9810:9964   */\n      jump(tag_198)\n    tag_200:\n        /* \"#utility.yul\":9993:9999   */\n      dup4\n        /* \"#utility.yul\":9988:9991   */\n      dup9\n        /* \"#utility.yul\":9984:10000   */\n      add\n        /* \"#utility.yul\":9977:10000   */\n      swap6\n      pop\n        /* \"#utility.yul\":9673:10010   */\n      pop\n      pop\n        /* \"#utility.yul\":9458:10010   */\n    tag_194:\n      pop\n        /* \"#utility.yul\":9247:10016   */\n      pop\n      pop\n        /* \"#utility.yul\":9138:10016   */\n      swap3\n      swap2\n      pop\n      pop\n      jump\t// out\n        /* \"#utility.yul\":10022:10295   */\n    tag_48:\n        /* \"#utility.yul\":10153:10156   */\n      0x00\n        /* \"#utility.yul\":10175:10269   */\n      tag_202\n        /* \"#utility.yul\":10265:10268   */\n      dup3\n        /* \"#utility.yul\":10256:10262   */\n      dup5\n        /* \"#utility.yul\":10175:10269   */\n      tag_88\n      jump\t// in\n    tag_202:\n        /* \"#utility.yul\":10168:10269   */\n      swap2\n      pop\n        /* \"#utility.yul\":10286:10289   */\n      dup2\n        /* \"#utility.yul\":10279:10289   */\n      swap1\n      pop\n        /* \"#utility.yul\":10022:10295   */\n      swap3\n      swap2\n      pop\n      pop\n      jump\t// out\n        /* \"#utility.yul\":10301:11696   */\n    tag_52:\n        /* \"#utility.yul\":10418:10455   */\n      tag_204\n        /* \"#utility.yul\":10451:10454   */\n      dup3\n        /* \"#utility.yul\":10418:10455   */\n      tag_55\n      jump\t// in\n    tag_204:\n        /* \"#utility.yul\":10520:10538   */\n      0xffffffffffffffff\n        /* \"#utility.yul\":10512:10518   */\n      dup2\n        /* \"#utility.yul\":10509:10539   */\n      gt\n        /* \"#utility.yul\":10506:10562   */\n      iszero\n      tag_205\n      jumpi\n        /* \"#utility.yul\":10542:10560   */\n      tag_206\n      tag_68\n      jump\t// in\n    tag_206:\n        /* \"#utility.yul\":10506:10562   */\n    tag_205:\n        /* \"#utility.yul\":10586:10624   */\n      tag_207\n        /* \"#utility.yul\":10618:10622   */\n      dup3\n        /* \"#utility.yul\":10612:10623   */\n      sload\n        /* \"#utility.yul\":10586:10624   */\n      tag_40\n      jump\t// in\n    tag_207:\n        /* \"#utility.yul\":10671:10738   */\n      tag_208\n        /* \"#utility.yul\":10731:10737   */\n      dup3\n        /* \"#utility.yul\":10723:10729   */\n      dup3\n        /* \"#utility.yul\":10717:10721   */\n      dup6\n        /* \"#utility.yul\":10671:10738   */\n      tag_82\n      jump\t// in\n    tag_208:\n        /* \"#utility.yul\":10765:10766   */\n      0x00\n        /* \"#utility.yul\":10789:10793   */\n      0x20\n        /* \"#utility.yul\":10776:10793   */\n      swap1\n      pop\n        /* \"#utility.yul\":10821:10823   */\n      0x1f\n        /* \"#utility.yul\":10813:10819   */\n      dup4\n        /* \"#utility.yul\":10810:10824   */\n      gt\n        /* \"#utility.yul\":10838:10839   */\n      0x01\n        /* \"#utility.yul\":10833:11451   */\n      dup2\n      eq\n      tag_210\n      jumpi\n        /* \"#utility.yul\":11495:11496   */\n      0x00\n        /* \"#utility.yul\":11512:11518   */\n      dup5\n        /* \"#utility.yul\":11509:11586   */\n      iszero\n      tag_211\n      jumpi\n        /* \"#utility.yul\":11561:11570   */\n      dup3\n        /* \"#utility.yul\":11556:11559   */\n      dup8\n        /* \"#utility.yul\":11552:11571   */\n      add\n        /* \"#utility.yul\":11546:11572   */\n      mload\n        /* \"#utility.yul\":11537:11572   */\n      swap1\n      pop\n        /* \"#utility.yul\":11509:11586   */\n    tag_211:\n        /* \"#utility.yul\":11612:11679   */\n      tag_212\n        /* \"#utility.yul\":11672:11678   */\n      dup6\n        /* \"#utility.yul\":11665:11670   */\n      dup3\n        /* \"#utility.yul\":11612:11679   */\n      tag_85\n      jump\t// in\n    tag_212:\n        /* \"#utility.yul\":11606:11610   */\n      dup7\n        /* \"#utility.yul\":11599:11680   */\n      sstore\n        /* \"#utility.yul\":11468:11690   */\n      pop\n        /* \"#utility.yul\":10803:11690   */\n      jump(tag_209)\n        /* \"#utility.yul\":10833:11451   */\n    tag_210:\n        /* \"#utility.yul\":10885:10889   */\n      0x1f\n        /* \"#utility.yul\":10881:10890   */\n      not\n        /* \"#utility.yul\":10873:10879   */\n      dup5\n        /* \"#utility.yul\":10869:10891   */\n      and\n        /* \"#utility.yul\":10919:10956   */\n      tag_213\n        /* \"#utility.yul\":10951:10955   */\n      dup7\n        /* \"#utility.yul\":10919:10956   */\n      tag_70\n      jump\t// in\n    tag_213:\n        /* \"#utility.yul\":10978:10979   */\n      0x00\n        /* \"#utility.yul\":10992:11200   */\n    tag_214:\n        /* \"#utility.yul\":11006:11013   */\n      dup3\n        /* \"#utility.yul\":11003:11004   */\n      dup2\n        /* \"#utility.yul\":11000:11014   */\n      lt\n        /* \"#utility.yul\":10992:11200   */\n      iszero\n      tag_216\n      jumpi\n        /* \"#utility.yul\":11085:11094   */\n      dup5\n        /* \"#utility.yul\":11080:11083   */\n      dup10\n        /* \"#utility.yul\":11076:11095   */\n      add\n        /* \"#utility.yul\":11070:11096   */\n      mload\n        /* \"#utility.yul\":11062:11068   */\n      dup3\n        /* \"#utility.yul\":11055:11097   */\n      sstore\n        /* \"#utility.yul\":11136:11137   */\n      0x01\n        /* \"#utility.yul\":11128:11134   */\n      dup3\n        /* \"#utility.yul\":11124:11138   */\n      add\n        /* \"#utility.yul\":11114:11138   */\n      swap2\n      pop\n        /* \"#utility.yul\":11183:11185   */\n      0x20\n        /* \"#utility.yul\":11172:11181   */\n      dup6\n        /* \"#utility.yul\":11168:11186   */\n      add\n        /* \"#utility.yul\":11155:11186   */\n      swap5\n      pop\n        /* \"#utility.yul\":11029:11033   */\n      0x20\n        /* \"#utility.yul\":11026:11027   */\n      dup2\n        /* \"#utility.yul\":11022:11034   */\n      add\n        /* \"#utility.yul\":11017:11034   */\n      swap1\n      pop\n        /* \"#utility.yul\":10992:11200   */\n      jump(tag_214)\n    tag_216:\n        /* \"#utility.yul\":11228:11234   */\n      dup7\n        /* \"#utility.yul\":11219:11226   */\n      dup4\n        /* \"#utility.yul\":11216:11235   */\n      lt\n        /* \"#utility.yul\":11213:11392   */\n      iszero\n      tag_217\n      jumpi\n        /* \"#utility.yul\":11286:11295   */\n      dup5\n        /* \"#utility.yul\":11281:11284   */\n      dup10\n        /* \"#utility.yul\":11277:11296   */\n      add\n        /* \"#utility.yul\":11271:11297   */\n      mload\n        /* \"#utility.yul\":11329:11377   */\n      tag_218\n        /* \"#utility.yul\":11371:11375   */\n      0x1f\n        /* \"#utility.yul\":11363:11369   */\n      dup10\n        /* \"#utility.yul\":11359:11376   */\n      and\n        /* \"#utility.yul\":11348:11357   */\n      dup3\n        /* \"#utility.yul\":11329:11377   */\n      tag_84\n      jump\t// in\n    tag_218:\n        /* \"#utility.yul\":11321:11327   */\n      dup4\n        /* \"#utility.yul\":11314:11378   */\n      sstore\n        /* \"#utility.yul\":11236:11392   */\n      pop\n        /* \"#utility.yul\":11213:11392   */\n    tag_217:\n        /* \"#utility.yul\":11438:11439   */\n      0x01\n        /* \"#utility.yul\":11434:11435   */\n      0x02\n        /* \"#utility.yul\":11426:11432   */\n      dup9\n        /* \"#utility.yul\":11422:11436   */\n      mul\n        /* \"#utility.yul\":11418:11440   */\n      add\n        /* \"#utility.yul\":11412:11416   */\n      dup9\n        /* \"#utility.yul\":11405:11441   */\n      sstore\n        /* \"#utility.yul\":10840:11451   */\n      pop\n      pop\n      pop\n        /* \"#utility.yul\":10803:11690   */\n    tag_209:\n      pop\n        /* \"#utility.yul\":10393:11696   */\n      pop\n      pop\n      pop\n        /* \"#utility.yul\":10301:11696   */\n      pop\n      pop\n      jump\t// out\n\n    auxdata: 0xa2646970667358221220489c8fc57703eca2666c79cb676ee1e53e4874b9991af283f6b97b38e0d290a364736f6c63430008120033\n}\n",
				"bytecode": {
					"linkReferences": {},
					"object": "60806040523480156200001157600080fd5b50620000226200003960201b60201c565b60009081620000329190620002f0565b50620003d7565b60606040518060400160405280600b81526020017f48656c6c6f20576f726c64000000000000000000000000000000000000000000815250905090565b600081519050919050565b7f4e487b7100000000000000000000000000000000000000000000000000000000600052604160045260246000fd5b7f4e487b7100000000000000000000000000000000000000000000000000000000600052602260045260246000fd5b60006002820490506001821680620000f857607f821691505b6020821081036200010e576200010d620000b0565b5b50919050565b60008190508160005260206000209050919050565b60006020601f8301049050919050565b600082821b905092915050565b600060088302620001787fffffffffffffffffffffffffffffffffffffffffffffffffffffffffffffffff8262000139565b62000184868362000139565b95508019841693508086168417925050509392505050565b6000819050919050565b6000819050919050565b6000620001d1620001cb620001c5846200019c565b620001a6565b6200019c565b9050919050565b6000819050919050565b620001ed83620001b0565b62000205620001fc82620001d8565b84845462000146565b825550505050565b600090565b6200021c6200020d565b62000229818484620001e2565b505050565b5b8181101562000251576200024560008262000212565b6001810190506200022f565b5050565b601f821115620002a0576200026a8162000114565b620002758462000129565b8101602085101562000285578190505b6200029d620002948562000129565b8301826200022e565b50505b505050565b600082821c905092915050565b6000620002c560001984600802620002a5565b1980831691505092915050565b6000620002e08383620002b2565b9150826002028217905092915050565b620002fb8262000076565b67ffffffffffffffff81111562000317576200031662000081565b5b620003238254620000df565b6200033082828562000255565b600060209050601f83116001811462000368576000841562000353578287015190505b6200035f8582620002d2565b865550620003cf565b601f198416620003788662000114565b60005b82811015620003a2578489015182556001820191506020850194506020810190506200037b565b86831015620003c25784890151620003be601f891682620002b2565b8355505b6001600288020188555050505b505050505050565b6108d980620003e76000396000f3fe608060405234801561001057600080fd5b50600436106100575760003560e01c80630953aec51461005c5780631089bbc81461007a5780632fda332e146100985780635d3a1f9d146100b6578063c605f76c146100d2575b600080fd5b6100646100f0565b604051610071919061026e565b60405180910390f35b6100826100ff565b60405161008f9190610319565b60405180910390f35b6100a061013c565b6040516100ad919061026e565b60405180910390f35b6100d060048036038101906100cb91906103aa565b610164565b005b6100da61017a565b6040516100e79190610319565b60405180910390f35b60006100fa61020c565b905090565b60606040518060400160405280600b81526020017f48656c6c6f20576f726c64000000000000000000000000000000000000000000815250905090565b600061014661020c565b156101545760009050610161565b61015c61023a565b600190505b90565b818160009182610175929190610647565b505050565b60606000805461018990610460565b80601f01602080910402602001604051908101604052809291908181526020018280546101b590610460565b80156102025780601f106101d757610100808354040283529160200191610202565b820191906000526020600020905b8154815290600101906020018083116101e557829003601f168201915b5050505050905090565b60006102166100ff565b80519060200120600060405161022c91906107ba565b604051809103902014905090565b6102426100ff565b6000908161025091906107d1565b50565b60008115159050919050565b61026881610253565b82525050565b6000602082019050610283600083018461025f565b92915050565b600081519050919050565b600082825260208201905092915050565b60005b838110156102c35780820151818401526020810190506102a8565b60008484015250505050565b6000601f19601f8301169050919050565b60006102eb82610289565b6102f58185610294565b93506103058185602086016102a5565b61030e816102cf565b840191505092915050565b6000602082019050818103600083015261033381846102e0565b905092915050565b600080fd5b600080fd5b600080fd5b600080fd5b600080fd5b60008083601f84011261036a57610369610345565b5b8235905067ffffffffffffffff8111156103875761038661034a565b5b6020830191508360018202830111156103a3576103a261034f565b5b9250929050565b600080602083850312156103c1576103c061033b565b5b600083013567ffffffffffffffff8111156103df576103de610340565b5b6103eb85828601610354565b92509250509250929050565b600082905092915050565b7f4e487b7100000000000000000000000000000000000000000000000000000000600052604160045260246000fd5b7f4e487b7100000000000000000000000000000000000000000000000000000000600052602260045260246000fd5b6000600282049050600182168061047857607f821691505b60208210810361048b5761048a610431565b5b50919050565b60008190508160005260206000209050919050565b60006020601f8301049050919050565b600082821b905092915050565b6000600883026104f37fffffffffffffffffffffffffffffffffffffffffffffffffffffffffffffffff826104b6565b6104fd86836104b6565b95508019841693508086168417925050509392505050565b6000819050919050565b6000819050919050565b600061054461053f61053a84610515565b61051f565b610515565b9050919050565b6000819050919050565b61055e83610529565b61057261056a8261054b565b8484546104c3565b825550505050565b600090565b61058761057a565b610592818484610555565b505050565b5b818110156105b6576105ab60008261057f565b600181019050610598565b5050565b601f8211156105fb576105cc81610491565b6105d5846104a6565b810160208510156105e4578190505b6105f86105f0856104a6565b830182610597565b50505b505050565b600082821c905092915050565b600061061e60001984600802610600565b1980831691505092915050565b6000610637838361060d565b9150826002028217905092915050565b61065183836103f7565b67ffffffffffffffff81111561066a57610669610402565b5b6106748254610460565b61067f8282856105ba565b6000601f8311600181146106ae576000841561069c578287013590505b6106a6858261062b565b86555061070e565b601f1984166106bc86610491565b60005b828110156106e4578489013582556001820191506020850194506020810190506106bf565b8683101561070157848901356106fd601f89168261060d565b8355505b6001600288020188555050505b50505050505050565b600081905092915050565b60008190508160005260206000209050919050565b6000815461074481610460565b61074e8186610717565b94506001821660008114610769576001811461077e576107b1565b60ff19831686528115158202860193506107b1565b61078785610722565b60005b838110156107a95781548189015260018201915060208101905061078a565b838801955050505b50505092915050565b60006107c68284610737565b915081905092915050565b6107da82610289565b67ffffffffffffffff8111156107f3576107f2610402565b5b6107fd8254610460565b6108088282856105ba565b600060209050601f83116001811461083b5760008415610829578287015190505b610833858261062b565b86555061089b565b601f19841661084986610491565b60005b828110156108715784890151825560018201915060208501945060208101905061084c565b8683101561088e578489015161088a601f89168261060d565b8355505b6001600288020188555050505b50505050505056fea2646970667358221220489c8fc57703eca2666c79cb676ee1e53e4874b9991af283f6b97b38e0d290a364736f6c63430008120033",
					"opcodes": "PUSH1 0x80 PUSH1 0x40 MSTORE CALLVALUE DUP1 ISZERO PUSH3 0x11 JUMPI PUSH1 0x0 DUP1 REVERT JUMPDEST POP PUSH3 0x22 PUSH3 0x39 PUSH1 0x20 SHL PUSH1 0x20 SHR JUMP JUMPDEST PUSH1 0x0 SWAP1 DUP2 PUSH3 0x32 SWAP2 SWAP1 PUSH3 0x2F0 JUMP JUMPDEST POP PUSH3 0x3D7 JUMP JUMPDEST PUSH1 0x60 PUSH1 0x40 MLOAD DUP1 PUSH1 0x40 ADD PUSH1 0x40 MSTORE DUP1 PUSH1 0xB DUP2 MSTORE PUSH1 0x20 ADD PUSH32 0x48656C6C6F20576F726C64000000000000000000000000000000000000000000 DUP2 MSTORE POP SWAP1 POP SWAP1 JUMP JUMPDEST PUSH1 0x0 DUP2 MLOAD SWAP1 POP SWAP2 SWAP1 POP JUMP JUMPDEST PUSH32 0x4E487B7100000000000000000000000000000000000000000000000000000000 PUSH1 0x0 MSTORE PUSH1 0x41 PUSH1 0x4 MSTORE PUSH1 0x24 PUSH1 0x0 REVERT JUMPDEST PUSH32 0x4E487B7100000000000000000000000000000000000000000000000000000000 PUSH1 0x0 MSTORE PUSH1 0x22 PUSH1 0x4 MSTORE PUSH1 0x24 PUSH1 0x0 REVERT JUMPDEST PUSH1 0x0 PUSH1 0x2 DUP3 DIV SWAP1 POP PUSH1 0x1 DUP3 AND DUP1 PUSH3 0xF8 JUMPI PUSH1 0x7F DUP3 AND SWAP2 POP JUMPDEST PUSH1 0x20 DUP3 LT DUP2 SUB PUSH3 0x10E JUMPI PUSH3 0x10D PUSH3 0xB0 JUMP JUMPDEST JUMPDEST POP SWAP2 SWAP1 POP JUMP JUMPDEST PUSH1 0x0 DUP2 SWAP1 POP DUP2 PUSH1 0x0 MSTORE PUSH1 0x20 PUSH1 0x0 KECCAK256 SWAP1 POP SWAP2 SWAP1 POP JUMP JUMPDEST PUSH1 0x0 PUSH1 0x20 PUSH1 0x1F DUP4 ADD DIV SWAP1 POP SWAP2 SWAP1 POP JUMP JUMPDEST PUSH1 0x0 DUP3 DUP3 SHL SWAP1 POP SWAP3 SWAP2 POP POP JUMP JUMPDEST PUSH1 0x0 PUSH1 0x8 DUP4 MUL PUSH3 0x178 PUSH32 0xFFFFFFFFFFFFFFFFFFFFFFFFFFFFFFFFFFFFFFFFFFFFFFFFFFFFFFFFFFFFFFFF DUP3 PUSH3 0x139 JUMP JUMPDEST PUSH3 0x184 DUP7 DUP4 PUSH3 0x139 JUMP JUMPDEST SWAP6 POP DUP1 NOT DUP5 AND SWAP4 POP DUP1 DUP7 AND DUP5 OR SWAP3 POP POP POP SWAP4 SWAP3 POP POP POP JUMP JUMPDEST PUSH1 0x0 DUP2 SWAP1 POP SWAP2 SWAP1 POP JUMP JUMPDEST PUSH1 0x0 DUP2 SWAP1 POP SWAP2 SWAP1 POP JUMP JUMPDEST PUSH1 0x0 PUSH3 0x1D1 PUSH3 0x1CB PUSH3 0x1C5 DUP5 PUSH3 0x19C JUMP JUMPDEST PUSH3 0x1A6 JUMP JUMPDEST PUSH3 0x19C JUMP JUMPDEST SWAP1 POP SWAP2 SWAP1 POP JUMP JUMPDEST PUSH1 0x0 DUP2 SWAP1 POP SWAP2 SWAP1 POP JUMP JUMPDEST PUSH3 0x1ED DUP4 PUSH3 0x1B0 JUMP JUMPDEST PUSH3 0x205 PUSH3 0x1FC DUP3 PUSH3 0x1D8 JUMP JUMPDEST DUP5 DUP5 SLOAD PUSH3 0x146 JUMP JUMPDEST DUP3 SSTORE POP POP POP POP JUMP JUMPDEST PUSH1 0x0 SWAP1 JUMP JUMPDEST PUSH3 0x21C PUSH3 0x20D JUMP JUMPDEST PUSH3 0x229 DUP2 DUP5 DUP5 PUSH3 0x1E2 JUMP JUMPDEST POP POP POP JUMP JUMPDEST JUMPDEST DUP2 DUP2 LT ISZERO PUSH3 0x251 JUMPI PUSH3 0x245 PUSH1 0x0 DUP3 PUSH3 0x212 JUMP JUMPDEST PUSH1 0x1 DUP2 ADD SWAP1 POP PUSH3 0x22F JUMP JUMPDEST POP POP JUMP JUMPDEST PUSH1 0x1F DUP3 GT ISZERO PUSH3 0x2A0 JUMPI PUSH3 0x26A DUP2 PUSH3 0x114 JUMP JUMPDEST PUSH3 0x275 DUP5 PUSH3 0x129 JUMP JUMPDEST DUP2 ADD PUSH1 0x20 DUP6 LT ISZERO PUSH3 0x285 JUMPI DUP2 SWAP1 POP JUMPDEST PUSH3 0x29D PUSH3 0x294 DUP6 PUSH3 0x129 JUMP JUMPDEST DUP4 ADD DUP3 PUSH3 0x22E JUMP JUMPDEST POP POP JUMPDEST POP POP POP JUMP JUMPDEST PUSH1 0x0 DUP3 DUP3 SHR SWAP1 POP SWAP3 SWAP2 POP POP JUMP JUMPDEST PUSH1 0x0 PUSH3 0x2C5 PUSH1 0x0 NOT DUP5 PUSH1 0x8 MUL PUSH3 0x2A5 JUMP JUMPDEST NOT DUP1 DUP4 AND SWAP2 POP POP SWAP3 SWAP2 POP POP JUMP JUMPDEST PUSH1 0x0 PUSH3 0x2E0 DUP4 DUP4 PUSH3 0x2B2 JUMP JUMPDEST SWAP2 POP DUP3 PUSH1 0x2 MUL DUP3 OR SWAP1 POP SWAP3 SWAP2 POP POP JUMP JUMPDEST PUSH3 0x2FB DUP3 PUSH3 0x76 JUMP JUMPDEST PUSH8 0xFFFFFFFFFFFFFFFF DUP2 GT ISZERO PUSH3 0x317 JUMPI PUSH3 0x316 PUSH3 0x81 JUMP JUMPDEST JUMPDEST PUSH3 0x323 DUP3 SLOAD PUSH3 0xDF JUMP JUMPDEST PUSH3 0x330 DUP3 DUP3 DUP6 PUSH3 0x255 JUMP JUMPDEST PUSH1 0x0 PUSH1 0x20 SWAP1 POP PUSH1 0x1F DUP4 GT PUSH1 0x1 DUP2 EQ PUSH3 0x368 JUMPI PUSH1 0x0 DUP5 ISZERO PUSH3 0x353 JUMPI DUP3 DUP8 ADD MLOAD SWAP1 POP JUMPDEST PUSH3 0x35F DUP6 DUP3 PUSH3 0x2D2 JUMP JUMPDEST DUP7 SSTORE POP PUSH3 0x3CF JUMP JUMPDEST PUSH1 0x1F NOT DUP5 AND PUSH3 0x378 DUP7 PUSH3 0x114 JUMP JUMPDEST PUSH1 0x0 JUMPDEST DUP3 DUP2 LT ISZERO PUSH3 0x3A2 JUMPI DUP5 DUP10 ADD MLOAD DUP3 SSTORE PUSH1 0x1 DUP3 ADD SWAP2 POP PUSH1 0x20 DUP6 ADD SWAP5 POP PUSH1 0x20 DUP2 ADD SWAP1 POP PUSH3 0x37B JUMP JUMPDEST DUP7 DUP4 LT ISZERO PUSH3 0x3C2 JUMPI DUP5 DUP10 ADD MLOAD PUSH3 0x3BE PUSH1 0x1F DUP10 AND DUP3 PUSH3 0x2B2 JUMP JUMPDEST DUP4 SSTORE POP JUMPDEST PUSH1 0x1 PUSH1 0x2 DUP9 MUL ADD DUP9 SSTORE POP POP POP JUMPDEST POP POP POP POP POP POP JUMP JUMPDEST PUSH2 0x8D9 DUP1 PUSH3 0x3E7 PUSH1 0x0 CODECOPY PUSH1 0x0 RETURN INVALID PUSH1 0x80 PUSH1 0x40 MSTORE CALLVALUE DUP1 ISZERO PUSH2 0x10 JUMPI PUSH1 0x0 DUP1 REVERT JUMPDEST POP PUSH1 0x4 CALLDATASIZE LT PUSH2 0x57 JUMPI PUSH1 0x0 CALLDATALOAD PUSH1 0xE0 SHR DUP1 PUSH4 0x953AEC5 EQ PUSH2 0x5C JUMPI DUP1 PUSH4 0x1089BBC8 EQ PUSH2 0x7A JUMPI DUP1 PUSH4 0x2FDA332E EQ PUSH2 0x98 JUMPI DUP1 PUSH4 0x5D3A1F9D EQ PUSH2 0xB6 JUMPI DUP1 PUSH4 0xC605F76C EQ PUSH2 0xD2 JUMPI JUMPDEST PUSH1 0x0 DUP1 REVERT JUMPDEST PUSH2 0x64 PUSH2 0xF0 JUMP JUMPDEST PUSH1 0x40 MLOAD PUSH2 0x71 SWAP2 SWAP1 PUSH2 0x26E JUMP JUMPDEST PUSH1 0x40 MLOAD DUP1 SWAP2 SUB SWAP1 RETURN JUMPDEST PUSH2 0x82 PUSH2 0xFF JUMP JUMPDEST PUSH1 0x40 MLOAD PUSH2 0x8F SWAP2 SWAP1 PUSH2 0x319 JUMP JUMPDEST PUSH1 0x40 MLOAD DUP1 SWAP2 SUB SWAP1 RETURN JUMPDEST PUSH2 0xA0 PUSH2 0x13C JUMP JUMPDEST PUSH1 0x40 MLOAD PUSH2 0xAD SWAP2 SWAP1 PUSH2 0x26E JUMP JUMPDEST PUSH1 0x40 MLOAD DUP1 SWAP2 SUB SWAP1 RETURN JUMPDEST PUSH2 0xD0 PUSH1 0x4 DUP1 CALLDATASIZE SUB DUP2 ADD SWAP1 PUSH2 0xCB SWAP2 SWAP1 PUSH2 0x3AA JUMP JUMPDEST PUSH2 0x164 JUMP JUMPDEST STOP JUMPDEST PUSH2 0xDA PUSH2 0x17A JUMP JUMPDEST PUSH1 0x40 MLOAD PUSH2 0xE7 SWAP2 SWAP1 PUSH2 0x319 JUMP JUMPDEST PUSH1 0x40 MLOAD DUP1 SWAP2 SUB SWAP1 RETURN JUMPDEST PUSH1 0x0 PUSH2 0xFA PUSH2 0x20C JUMP JUMPDEST SWAP1 POP SWAP1 JUMP JUMPDEST PUSH1 0x60 PUSH1 0x40 MLOAD DUP1 PUSH1 0x40 ADD PUSH1 0x40 MSTORE DUP1 PUSH1 0xB DUP2 MSTORE PUSH1 0x20 ADD PUSH32 0x48656C6C6F20576F726C64000000000000000000000000000000000000000000 DUP2 MSTORE POP SWAP1 POP SWAP1 JUMP JUMPDEST PUSH1 0x0 PUSH2 0x146 PUSH2 0x20C JUMP JUMPDEST ISZERO PUSH2 0x154 JUMPI PUSH1 0x0 SWAP1 POP PUSH2 0x161 JUMP JUMPDEST PUSH2 0x15C PUSH2 0x23A JUMP JUMPDEST PUSH1 0x1 SWAP1 POP JUMPDEST SWAP1 JUMP JUMPDEST DUP2 DUP2 PUSH1 0x0 SWAP2 DUP3 PUSH2 0x175 SWAP3 SWAP2 SWAP1 PUSH2 0x647 JUMP JUMPDEST POP POP POP JUMP JUMPDEST PUSH1 0x60 PUSH1 0x0 DUP1 SLOAD PUSH2 0x189 SWAP1 PUSH2 0x460 JUMP JUMPDEST DUP1 PUSH1 0x1F ADD PUSH1 0x20 DUP1 SWAP2 DIV MUL PUSH1 0x20 ADD PUSH1 0x40 MLOAD SWAP1 DUP2 ADD PUSH1 0x40 MSTORE DUP1 SWAP3 SWAP2 SWAP1 DUP2 DUP2 MSTORE PUSH1 0x20 ADD DUP3 DUP1 SLOAD PUSH2 0x1B5 SWAP1 PUSH2 0x460 JUMP JUMPDEST DUP1 ISZERO PUSH2 0x202 JUMPI DUP1 PUSH1 0x1F LT PUSH2 0x1D7 JUMPI PUSH2 0x100 DUP1 DUP4 SLOAD DIV MUL DUP4 MSTORE SWAP2 PUSH1 0x20 ADD SWAP2 PUSH2 0x202 JUMP JUMPDEST DUP3 ADD SWAP2 SWAP1 PUSH1 0x0 MSTORE PUSH1 0x20 PUSH1 0x0 KECCAK256 SWAP1 JUMPDEST DUP2 SLOAD DUP2 MSTORE SWAP1 PUSH1 0x1 ADD SWAP1 PUSH1 0x20 ADD DUP1 DUP4 GT PUSH2 0x1E5 JUMPI DUP3 SWAP1 SUB PUSH1 0x1F AND DUP3 ADD SWAP2 JUMPDEST POP POP POP POP POP SWAP1 POP SWAP1 JUMP JUMPDEST PUSH1 0x0 PUSH2 0x216 PUSH2 0xFF JUMP JUMPDEST DUP1 MLOAD SWAP1 PUSH1 0x20 ADD KECCAK256 PUSH1 0x0 PUSH1 0x40 MLOAD PUSH2 0x22C SWAP2 SWAP1 PUSH2 0x7BA JUMP JUMPDEST PUSH1 0x40 MLOAD DUP1 SWAP2 SUB SWAP1 KECCAK256 EQ SWAP1 POP SWAP1 JUMP JUMPDEST PUSH2 0x242 PUSH2 0xFF JUMP JUMPDEST PUSH1 0x0 SWAP1 DUP2 PUSH2 0x250 SWAP2 SWAP1 PUSH2 0x7D1 JUMP JUMPDEST POP JUMP JUMPDEST PUSH1 0x0 DUP2 ISZERO ISZERO SWAP1 POP SWAP2 SWAP1 POP JUMP JUMPDEST PUSH2 0x268 DUP2 PUSH2 0x253 JUMP JUMPDEST DUP3 MSTORE POP POP JUMP JUMPDEST PUSH1 0x0 PUSH1 0x20 DUP3 ADD SWAP1 POP PUSH2 0x283 PUSH1 0x0 DUP4 ADD DUP5 PUSH2 0x25F JUMP JUMPDEST SWAP3 SWAP2 POP POP JUMP JUMPDEST PUSH1 0x0 DUP2 MLOAD SWAP1 POP SWAP2 SWAP1 POP JUMP JUMPDEST PUSH1 0x0 DUP3 DUP3 MSTORE PUSH1 0x20 DUP3 ADD SWAP1 POP SWAP3 SWAP2 POP POP JUMP JUMPDEST PUSH1 0x0 JUMPDEST DUP4 DUP2 LT ISZERO PUSH2 0x2C3 JUMPI DUP1 DUP3 ADD MLOAD DUP2 DUP5 ADD MSTORE PUSH1 0x20 DUP2 ADD SWAP1 POP PUSH2 0x2A8 JUMP JUMPDEST PUSH1 0x0 DUP5 DUP5 ADD MSTORE POP POP POP POP JUMP JUMPDEST PUSH1 0x0 PUSH1 0x1F NOT PUSH1 0x1F DUP4 ADD AND SWAP1 POP SWAP2 SWAP1 POP JUMP JUMPDEST PUSH1 0x0 PUSH2 0x2EB DUP3 PUSH2 0x289 JUMP JUMPDEST PUSH2 0x2F5 DUP2 DUP6 PUSH2 0x294 JUMP JUMPDEST SWAP4 POP PUSH2 0x305 DUP2 DUP6 PUSH1 0x20 DUP7 ADD PUSH2 0x2A5 JUMP JUMPDEST PUSH2 0x30E DUP2 PUSH2 0x2CF JUMP JUMPDEST DUP5 ADD SWAP2 POP POP SWAP3 SWAP2 POP POP JUMP JUMPDEST PUSH1 0x0 PUSH1 0x20 DUP3 ADD SWAP1 POP DUP2 DUP2 SUB PUSH1 0x0 DUP4 ADD MSTORE PUSH2 0x333 DUP2 DUP5 PUSH2 0x2E0 JUMP JUMPDEST SWAP1 POP SWAP3 SWAP2 POP POP JUMP JUMPDEST PUSH1 0x0 DUP1 REVERT JUMPDEST PUSH1 0x0 DUP1 REVERT JUMPDEST PUSH1 0x0 DUP1 REVERT JUMPDEST PUSH1 0x0 DUP1 REVERT JUMPDEST PUSH1 0x0 DUP1 REVERT JUMPDEST PUSH1 0x0 DUP1 DUP4 PUSH1 0x1F DUP5 ADD SLT PUSH2 0x36A JUMPI PUSH2 0x369 PUSH2 0x345 JUMP JUMPDEST JUMPDEST DUP3 CALLDATALOAD SWAP1 POP PUSH8 0xFFFFFFFFFFFFFFFF DUP2 GT ISZERO PUSH2 0x387 JUMPI PUSH2 0x386 PUSH2 0x34A JUMP JUMPDEST JUMPDEST PUSH1 0x20 DUP4 ADD SWAP2 POP DUP4 PUSH1 0x1 DUP3 MUL DUP4 ADD GT ISZERO PUSH2 0x3A3 JUMPI PUSH2 0x3A2 PUSH2 0x34F JUMP JUMPDEST JUMPDEST SWAP3 POP SWAP3 SWAP1 POP JUMP JUMPDEST PUSH1 0x0 DUP1 PUSH1 0x20 DUP4 DUP6 SUB SLT ISZERO PUSH2 0x3C1 JUMPI PUSH2 0x3C0 PUSH2 0x33B JUMP JUMPDEST JUMPDEST PUSH1 0x0 DUP4 ADD CALLDATALOAD PUSH8 0xFFFFFFFFFFFFFFFF DUP2 GT ISZERO PUSH2 0x3DF JUMPI PUSH2 0x3DE PUSH2 0x340 JUMP JUMPDEST JUMPDEST PUSH2 0x3EB DUP6 DUP3 DUP7 ADD PUSH2 0x354 JUMP JUMPDEST SWAP3 POP SWAP3 POP POP SWAP3 POP SWAP3 SWAP1 POP JUMP JUMPDEST PUSH1 0x0 DUP3 SWAP1 POP SWAP3 SWAP2 POP POP JUMP JUMPDEST PUSH32 0x4E487B7100000000000000000000000000000000000000000000000000000000 PUSH1 0x0 MSTORE PUSH1 0x41 PUSH1 0x4 MSTORE PUSH1 0x24 PUSH1 0x0 REVERT JUMPDEST PUSH32 0x4E487B7100000000000000000000000000000000000000000000000000000000 PUSH1 0x0 MSTORE PUSH1 0x22 PUSH1 0x4 MSTORE PUSH1 0x24 PUSH1 0x0 REVERT JUMPDEST PUSH1 0x0 PUSH1 0x2 DUP3 DIV SWAP1 POP PUSH1 0x1 DUP3 AND DUP1 PUSH2 0x478 JUMPI PUSH1 0x7F DUP3 AND SWAP2 POP JUMPDEST PUSH1 0x20 DUP3 LT DUP2 SUB PUSH2 0x48B JUMPI PUSH2 0x48A PUSH2 0x431 JUMP JUMPDEST JUMPDEST POP SWAP2 SWAP1 POP JUMP JUMPDEST PUSH1 0x0 DUP2 SWAP1 POP DUP2 PUSH1 0x0 MSTORE PUSH1 0x20 PUSH1 0x0 KECCAK256 SWAP1 POP SWAP2 SWAP1 POP JUMP JUMPDEST PUSH1 0x0 PUSH1 0x20 PUSH1 0x1F DUP4 ADD DIV SWAP1 POP SWAP2 SWAP1 POP JUMP JUMPDEST PUSH1 0x0 DUP3 DUP3 SHL SWAP1 POP SWAP3 SWAP2 POP POP JUMP JUMPDEST PUSH1 0x0 PUSH1 0x8 DUP4 MUL PUSH2 0x4F3 PUSH32 0xFFFFFFFFFFFFFFFFFFFFFFFFFFFFFFFFFFFFFFFFFFFFFFFFFFFFFFFFFFFFFFFF DUP3 PUSH2 0x4B6 JUMP JUMPDEST PUSH2 0x4FD DUP7 DUP4 PUSH2 0x4B6 JUMP JUMPDEST SWAP6 POP DUP1 NOT DUP5 AND SWAP4 POP DUP1 DUP7 AND DUP5 OR SWAP3 POP POP POP SWAP4 SWAP3 POP POP POP JUMP JUMPDEST PUSH1 0x0 DUP2 SWAP1 POP SWAP2 SWAP1 POP JUMP JUMPDEST PUSH1 0x0 DUP2 SWAP1 POP SWAP2 SWAP1 POP JUMP JUMPDEST PUSH1 0x0 PUSH2 0x544 PUSH2 0x53F PUSH2 0x53A DUP5 PUSH2 0x515 JUMP JUMPDEST PUSH2 0x51F JUMP JUMPDEST PUSH2 0x515 JUMP JUMPDEST SWAP1 POP SWAP2 SWAP1 POP JUMP JUMPDEST PUSH1 0x0 DUP2 SWAP1 POP SWAP2 SWAP1 POP JUMP JUMPDEST PUSH2 0x55E DUP4 PUSH2 0x529 JUMP JUMPDEST PUSH2 0x572 PUSH2 0x56A DUP3 PUSH2 0x54B JUMP JUMPDEST DUP5 DUP5 SLOAD PUSH2 0x4C3 JUMP JUMPDEST DUP3 SSTORE POP POP POP POP JUMP JUMPDEST PUSH1 0x0 SWAP1 JUMP JUMPDEST PUSH2 0x587 PUSH2 0x57A JUMP JUMPDEST PUSH2 0x592 DUP2 DUP5 DUP5 PUSH2 0x555 JUMP JUMPDEST POP POP POP JUMP JUMPDEST JUMPDEST DUP2 DUP2 LT ISZERO PUSH2 0x5B6 JUMPI PUSH2 0x5AB PUSH1 0x0 DUP3 PUSH2 0x57F JUMP JUMPDEST PUSH1 0x1 DUP2 ADD SWAP1 POP PUSH2 0x598 JUMP JUMPDEST POP POP JUMP JUMPDEST PUSH1 0x1F DUP3 GT ISZERO PUSH2 0x5FB JUMPI PUSH2 0x5CC DUP2 PUSH2 0x491 JUMP JUMPDEST PUSH2 0x5D5 DUP5 PUSH2 0x4A6 JUMP JUMPDEST DUP2 ADD PUSH1 0x20 DUP6 LT ISZERO PUSH2 0x5E4 JUMPI DUP2 SWAP1 POP JUMPDEST PUSH2 0x5F8 PUSH2 0x5F0 DUP6 PUSH2 0x4A6 JUMP JUMPDEST DUP4 ADD DUP3 PUSH2 0x597 JUMP JUMPDEST POP POP JUMPDEST POP POP POP JUMP JUMPDEST PUSH1 0x0 DUP3 DUP3 SHR SWAP1 POP SWAP3 SWAP2 POP POP JUMP JUMPDEST PUSH1 0x0 PUSH2 0x61E PUSH1 0x0 NOT DUP5 PUSH1 0x8 MUL PUSH2 0x600 JUMP JUMPDEST NOT DUP1 DUP4 AND SWAP2 POP POP SWAP3 SWAP2 POP POP JUMP JUMPDEST PUSH1 0x0 PUSH2 0x637 DUP4 DUP4 PUSH2 0x60D JUMP JUMPDEST SWAP2 POP DUP3 PUSH1 0x2 MUL DUP3 OR SWAP1 POP SWAP3 SWAP2 POP POP JUMP JUMPDEST PUSH2 0x651 DUP4 DUP4 PUSH2 0x3F7 JUMP JUMPDEST PUSH8 0xFFFFFFFFFFFFFFFF DUP2 GT ISZERO PUSH2 0x66A JUMPI PUSH2 0x669 PUSH2 0x402 JUMP JUMPDEST JUMPDEST PUSH2 0x674 DUP3 SLOAD PUSH2 0x460 JUMP JUMPDEST PUSH2 0x67F DUP3 DUP3 DUP6 PUSH2 0x5BA JUMP JUMPDEST PUSH1 0x0 PUSH1 0x1F DUP4 GT PUSH1 0x1 DUP2 EQ PUSH2 0x6AE JUMPI PUSH1 0x0 DUP5 ISZERO PUSH2 0x69C JUMPI DUP3 DUP8 ADD CALLDATALOAD SWAP1 POP JUMPDEST PUSH2 0x6A6 DUP6 DUP3 PUSH2 0x62B JUMP JUMPDEST DUP7 SSTORE POP PUSH2 0x70E JUMP JUMPDEST PUSH1 0x1F NOT DUP5 AND PUSH2 0x6BC DUP7 PUSH2 0x491 JUMP JUMPDEST PUSH1 0x0 JUMPDEST DUP3 DUP2 LT ISZERO PUSH2 0x6E4 JUMPI DUP5 DUP10 ADD CALLDATALOAD DUP3 SSTORE PUSH1 0x1 DUP3 ADD SWAP2 POP PUSH1 0x20 DUP6 ADD SWAP5 POP PUSH1 0x20 DUP2 ADD SWAP1 POP PUSH2 0x6BF JUMP JUMPDEST DUP7 DUP4 LT ISZERO PUSH2 0x701 JUMPI DUP5 DUP10 ADD CALLDATALOAD PUSH2 0x6FD PUSH1 0x1F DUP10 AND DUP3 PUSH2 0x60D JUMP JUMPDEST DUP4 SSTORE POP JUMPDEST PUSH1 0x1 PUSH1 0x2 DUP9 MUL ADD DUP9 SSTORE POP POP POP JUMPDEST POP POP POP POP POP POP POP JUMP JUMPDEST PUSH1 0x0 DUP2 SWAP1 POP SWAP3 SWAP2 POP POP JUMP JUMPDEST PUSH1 0x0 DUP2 SWAP1 POP DUP2 PUSH1 0x0 MSTORE PUSH1 0x20 PUSH1 0x0 KECCAK256 SWAP1 POP SWAP2 SWAP1 POP JUMP JUMPDEST PUSH1 0x0 DUP2 SLOAD PUSH2 0x744 DUP2 PUSH2 0x460 JUMP JUMPDEST PUSH2 0x74E DUP2 DUP7 PUSH2 0x717 JUMP JUMPDEST SWAP5 POP PUSH1 0x1 DUP3 AND PUSH1 0x0 DUP2 EQ PUSH2 0x769 JUMPI PUSH1 0x1 DUP2 EQ PUSH2 0x77E JUMPI PUSH2 0x7B1 JUMP JUMPDEST PUSH1 0xFF NOT DUP4 AND DUP7 MSTORE DUP2 ISZERO ISZERO DUP3 MUL DUP7 ADD SWAP4 POP PUSH2 0x7B1 JUMP JUMPDEST PUSH2 0x787 DUP6 PUSH2 0x722 JUMP JUMPDEST PUSH1 0x0 JUMPDEST DUP4 DUP2 LT ISZERO PUSH2 0x7A9 JUMPI DUP2 SLOAD DUP2 DUP10 ADD MSTORE PUSH1 0x1 DUP3 ADD SWAP2 POP PUSH1 0x20 DUP2 ADD SWAP1 POP PUSH2 0x78A JUMP JUMPDEST DUP4 DUP9 ADD SWAP6 POP POP POP JUMPDEST POP POP POP SWAP3 SWAP2 POP POP JUMP JUMPDEST PUSH1 0x0 PUSH2 0x7C6 DUP3 DUP5 PUSH2 0x737 JUMP JUMPDEST SWAP2 POP DUP2 SWAP1 POP SWAP3 SWAP2 POP POP JUMP JUMPDEST PUSH2 0x7DA DUP3 PUSH2 0x289 JUMP JUMPDEST PUSH8 0xFFFFFFFFFFFFFFFF DUP2 GT ISZERO PUSH2 0x7F3 JUMPI PUSH2 0x7F2 PUSH2 0x402 JUMP JUMPDEST JUMPDEST PUSH2 0x7FD DUP3 SLOAD PUSH2 0x460 JUMP JUMPDEST PUSH2 0x808 DUP3 DUP3 DUP6 PUSH2 0x5BA JUMP JUMPDEST PUSH1 0x0 PUSH1 0x20 SWAP1 POP PUSH1 0x1F DUP4 GT PUSH1 0x1 DUP2 EQ PUSH2 0x83B JUMPI PUSH1 0x0 DUP5 ISZERO PUSH2 0x829 JUMPI DUP3 DUP8 ADD MLOAD SWAP1 POP JUMPDEST PUSH2 0x833 DUP6 DUP3 PUSH2 0x62B JUMP JUMPDEST DUP7 SSTORE POP PUSH2 0x89B JUMP JUMPDEST PUSH1 0x1F NOT DUP5 AND PUSH2 0x849 DUP7 PUSH2 0x491 JUMP JUMPDEST PUSH1 0x0 JUMPDEST DUP3 DUP2 LT ISZERO PUSH2 0x871 JUMPI DUP5 DUP10 ADD MLOAD DUP3 SSTORE PUSH1 0x1 DUP3 ADD SWAP2 POP PUSH1 0x20 DUP6 ADD SWAP5 POP PUSH1 0x20 DUP2 ADD SWAP1 POP PUSH2 0x84C JUMP JUMPDEST DUP7 DUP4 LT ISZERO PUSH2 0x88E JUMPI DUP5 DUP10 ADD MLOAD PUSH2 0x88A PUSH1 0x1F DUP10 AND DUP3 PUSH2 0x60D JUMP JUMPDEST DUP4 SSTORE POP JUMPDEST PUSH1 0x1 PUSH1 0x2 DUP9 MUL ADD DUP9 SSTORE POP POP POP JUMPDEST POP POP POP POP POP POP JUMP INVALID LOG2 PUSH5 0x6970667358 0x22 SLT KECCAK256 BASEFEE SWAP13 DUP16 0xC5 PUSH24 0x3ECA2666C79CB676EE1E53E4874B9991AF283F6B97B38E0 0xD2 SWAP1 LOG3 PUSH5 0x736F6C6343 STOP ADDMOD SLT STOP CALLER "
				},
				"gasEstimates": {
					"creation": {
						"codeDepositCost": "453000",
						"executionCost": "infinite",
						"totalCost": "infinite"
					},
					"external": {
						"helloWorld()": "infinite",
						"isPure()": "infinite",
						"pureText()": "infinite",
						"restore()": "infinite",
						"setText(string)": "infinite"
					},
					"internal": {
						"_isPure()": "infinite",
						"_restore()": "infinite"
					}
				},
				"methodIdentifiers": {
					"helloWorld()": "c605f76c",
					"isPure()": "0953aec5",
					"pureText()": "1089bbc8",
					"restore()": "2fda332e",
					"setText(string)": "5d3a1f9d"
				}
			},
			"storageLayout": {
				"storage": [
					{
						"astId": 3,
						"contract": "Lesson3/HelloWorld.sol:HelloWorld",
						"label": "text",
						"offset": 0,
						"slot": "0",
						"type": "t_string_storage"
					}
				],
				"types": {
					"t_string_storage": {
						"encoding": "bytes",
						"label": "string",
						"numberOfBytes": "32"
					}
				}
			},
			"userdoc": {
				"kind": "user",
				"methods": {},
				"version": 1
			}
		}
	}
}